:100000000C9462000C94F4130C94CD130C948A009D
:100010000C948A000C948A000C948A000C948A0038
:100020000C948A000C948A000C948A000C948A0028
:100030000C948A000C948A000C948A000C948A0018
:100040000C9483130C948A000C9441140C941B148C
:100050000C948A000C948A000C948A000C948A00F8
:100060000C9464120C948A00000000002400270005
:100070002A0000000000250028002B0000000000DE
:1000800023002600290004040404040404040202DA
:100090000202020203030303030301020408102007
:1000A0004080010204081020010204081020000012
:1000B0000008000201000003040700000000000027
:1000C0000000731411241FBECFEFD8E0DEBFCDBFF8
:1000D00014E0A0E0B1E0E6EDF3E302C005900D927C
:1000E000A03AB107D9F726E0A0EAB4E001C01D921A
:1000F000A83EB207E1F710E0C2E6D0E004C02197C5
:10010000FE010E94C315C136D107C9F70E94E81449
:100110000C94E9190C940000FC01680F791F90E021
:100120005CE8E617F70789F0419188E0A92FA4273A
:10013000292F30E035952795922FA0FF02C0952FEB
:1001400092274695815091F7ECCF892F0895209101
:10015000CE04260F3327331F21323105ECF42091D2
:100160003B05FC0190E080E0243069F082E00895D6
:10017000A091CE042191AC0144555B4FA40FB52F43
:10018000B11D2C930196861798F38091CE04680FC9
:100190006093CE0480E0089581E008950895089565
:1001A0000895E091F4048091F304E81730F4F0E04E
:1001B000EB50FB4F808190E008958FEF9FEF089503
:1001C0009091F4048091F3042FEF3FEF981748F4D7
:1001D000E92FF0E0EB50FB4F208130E09F5F9093E0
:1001E000F404C90108958091F3049091F404891BEB
:1001F000990B0895CF92DF92EF92FF920F931F9386
:10020000CF93DF937C01CB018A012091410522230A
:1002100089F0EB016B01C40ED51ECC15DD0569F02C
:100220006991D701ED91FC910190F081E02DC7011A
:100230000995F3CF642F0E94A700C801DF91CF91E9
:100240001F910F91FF90EF90DF90CF900895CF9383
:10025000DF931F92CDB7DEB769832091410522233A
:10026000F9F020916405203258F021E030E0FC01E3
:100270003383228390E080E00F90DF91CF91089547
:1002800080914205E82FF0E0ED5BFA4F9981908371
:100290008F5F809342058093640581E090E0ECCF0E
:1002A00061E0CE0101960E94A700F7CF833081F074
:1002B00028F4813099F08230A9F008958730A9F0B0
:1002C0008830C9F08430B1F4809180008F7D03C004
:1002D000809180008F7780938000089584B58F7718
:1002E00084BD089584B58F7DFBCF8091B0008F775A
:1002F0008093B00008958091B0008F7DF9CFCF93A7
:10030000DF93282F30E0F901E255FF4F8491F90186
:10031000E656FF4FD491F901EA57FF4FC491CC2321
:10032000A1F081110E945601EC2FF0E0EE0FFF1FAB
:10033000E458FF4FA591B491EC91ED2381E090E05A
:1003400009F480E0DF91CF91089580E090E0FACF4A
:100350001F93CF93DF93282F30E0F901E255FF4F31
:100360008491F901E656FF4FD491F901EA57FF4F06
:10037000C491CC23A9F0162F81110E945601EC2FB5
:10038000F0E0EE0FFF1FEE58FF4FA591B4918FB72D
:10039000F894EC91111108C0D095DE23DC938FBF47
:1003A000DF91CF911F910895DE2BF8CF10923B057E
:1003B00081E080933A051092150561E082E10E9488
:1003C000A80161E083E10E94A801E9EBF0E08081EF
:1003D0008E7F808380818D7F808388E48093B800C6
:1003E00085E48093BC000895CF93DF9391E09093D0
:1003F000AB048823B9F0C091B800D091BA008091C5
:10040000BC008A7B8093BC0060E082E10E94A8016E
:1004100060E083E10E94A8010E94D601D093BA0057
:10042000C093B800DF91CF910895CF93DF9390E010
:10043000FC01E656FF4F24918A579F4FFC0184919F
:100440008823D1F090E0880F991FFC01E859FF4FF5
:10045000A591B491FC01EE58FF4FC591D491611163
:100460000EC09FB7F8948C91E22FE0958E238C9369
:100470002881E223E8839FBFDF91CF9108958FB752
:10048000F894EC91E22BEC938FBFF6CF8E50806402
:1004900080937C0080917A00806480937A008091C0
:1004A0007A0086FDFCCF80917800909179000895C4
:1004B0003FB7F8948091A7049091A804A091A90453
:1004C000B091AA0426B5A89B05C02F3F19F001964C
:1004D000A11DB11D3FBFBA2FA92F982F8827BC019E
:1004E000CD01620F711D811D911D42E0660F771FC6
:1004F000881F991F4A95D1F708958F929F92AF92C6
:10050000BF92CF92DF92EF92FF920E9458024B016E
:100510005C0188ECC82ED12CE12CF12C0E945802F1
:10052000681979098A099B09683E7340810591051C
:10053000A8F321E0C21AD108E108F10888EE880E7C
:1005400083E0981EA11CB11CC114D104E104F10484
:1005500029F7FF90EF90DF90CF90BF90AF909F90E2
:100560008F9008958F929F92AF92BF92CF92DF9219
:10057000EF92FF920F931F93CF93DF93D091640577
:10058000D13208F0D7C0182FC09163050E945802DD
:100590006B017C0180913B0581116BC082E08093EF
:1005A0003B0510933A058FEF80933905109238057B
:1005B000D0933705A3E4B5E0E7E1F5E080E0D81398
:1005C00091C01092160580911605CC0FC82BC093D0
:1005D000160580911505813009F088C01092150527
:1005E0000E9458026B017C01809116058093BB002C
:1005F00080913D0590913E05A0913F05B091400549
:10060000892B8A2B8B2BA1F00E94580200913D056B
:1006100010913E0520913F05309140056C197D09F0
:100620008E099F09061717072807390708F442C0E3
:100630008091BC0083FDD8CF85EC8093BC000E94E4
:1006400058026B017C0180913B05823009F450C057
:10065000809139058F3F09F46FC080913905803250
:1006600009F46CC080913905803309F469C084E0D5
:1006700026C080913D0590913E05A0913F05B09127
:100680004005892B8A2B8B2B09F484CF0E945802BA
:1006900080903D0590903E05A0903F05B0904005AC
:1006A0006C197D098E099F0986169706A806B9065A
:1006B00008F070CF80913C050E94F40185E0109213
:1006C00042051092640510924105DF91CF911F9170
:1006D0000F91FF90EF90DF90CF90BF90AF909F90E1
:1006E0008F9008959D9191938F5F69CF85EEA5CFEF
:1006F00080913D0590913E05A0913F05B091400548
:10070000892B8A2B8B2B09F49ECF0E9458020091D3
:100710003D0510913E0520913F05309140056C1933
:100720007D098E099F09061717072807390708F062
:100730008ACFC0CF81E0C3CF80E0C1CF82E0BFCFFE
:1007400083E0BDCF2FB7F8946091A3047091A40407
:100750008091A5049091A6042FBF08950895AF92AB
:10076000BF92CF92DF92EF92FF920F931F93CF939E
:10077000DF936C017B018B01040F151FEB015E0100
:10078000AE18BF08C017D10759F06991D601ED9195
:10079000FC910190F081E02DC6010995892B79F734
:1007A000C501DF91CF911F910F91FF90EF90DF90E6
:1007B000CF90BF90AF90089590E080E00895FC0145
:1007C000538D448D252F30E0842F90E0821B930BB6
:1007D000541710F0CF96089501970895FC01918D5C
:1007E000828D981761F0A28DAE0FBF2FB11D5D965F
:1007F0008C91928D9F5F9F73928F90E008958FEF01
:100800009FEF0895FC01918D828D981731F0828DB4
:10081000E80FF11D858D90E008958FEF9FEF08950B
:10082000FC01918D228D892F90E0805C9F4F821B6F
:1008300091098F739927089581E795E00E9410042C
:1008400021E0892B09F420E0822F089580E090E0D8
:10085000892B29F00E941C0481110C94000008953A
:10086000FC01A48DA80FB92FB11DA35ABF4F2C9125
:10087000848D90E001968F739927848FA689B7891C
:100880002C93A089B1898C91837080648C93938D13
:10089000848D981306C00288F389E02D80818F7DB6
:1008A00080830895EF92FF920F931F93CF93DF936E
:1008B000EC0181E0888F9B8D8C8D98131AC0E8899C
:1008C000F989808185FF15C09FB7F894EE89FF896B
:1008D0006083E889F98980818370806480839FBF09
:1008E00081E090E0DF91CF911F910F91FF90EF9009
:1008F0000895F62E0B8D10E00F5F1F4F0F73112719
:10090000E02E8C8D8E110CC00FB607FCFACFE88953
:10091000F989808185FFF5CFCE010E943004F1CFA7
:10092000EB8DEC0FFD2FF11DE35AFF4FF0829FB7C7
:10093000F8940B8FEA89FB8980818062CFCFCF93B7
:10094000DF93EC01888D8823B9F0AA89BB89E889F7
:10095000F9898C9185FD03C0808186FD0DC00FB69D
:1009600007FCF7CF8C9185FFF2CF808185FFEDCF1B
:10097000CE010E943004E9CFDF91CF910895CF934B
:10098000C42FFC018081806291E0909341058093A7
:100990006305109242051092640585E695E00E9479
:1009A00027016C2F85E695E00E94270181E0CF9119
:1009B0000C94B202CF93DF93EC0168831092F4049D
:1009C0001092F30410924205109264050E94D60121
:1009D0008EEC90E09093CD048093CC048FEC90E06B
:1009E0009093D1048093D0048881806291E09093A9
:1009F00041058093630560E085E695E00E9427014C
:100A00006FEF85E695E00E94270160E085E695E0BE
:100A10000E94270160E085E695E00E94270160E0E2
:100A200085E695E00E94270160E085E695E00E945A
:100A3000270160E085E695E00E94270160E085E6F9
:100A400095E00E94270160E085E695E00E9427017D
:100A500060E085E695E00E94270160E085E695E08C
:100A60000E94270181E0DF91CF910C94B20280E0D7
:100A700091E00C946F07FC011282138208950F938A
:100A80001F93CF93DF93FC01228133812617370711
:100A900099F08B01EC017B836A83462F69E0049611
:100AA0000E94BF04412F69E0CE010596DF91CF91EE
:100AB0001F910F910C94BF04DF91CF911F910F9163
:100AC00008950F931F93CF93DF93FC01603170F56E
:100AD0008281938101E010E020E030E004C0000F4B
:100AE000111F221F331F6A95D2F74423D1F0082B20
:100AF000192B13830283C281D3818C179D07B1F018
:100B00008F014C2F69E0CF0104960E94BF044D2F46
:100B100069E0C8010596DF91CF911F910F910C9468
:100B2000BF040095109508231923E3CFDF91CF91DF
:100B30001F910F9108950895089508950F931F939D
:100B4000CF93DF93FC018185882309F461C0813054
:100B500009F0B5C014858085482F50E01F3FF1F1A2
:100B6000A281AF3F09F4ADC066E0A69FE001112469
:100B7000CE54DE4FC10FD11D9881113081F5B0E008
:100B8000A953BE4F2C91A92FA21BBB0B4A175B0781
:100B90000CF495C0D82FD91BD58B9385C281913089
:100BA00011F0C230F1F4AC2FB0E0AC53BE4F6C91F9
:100BB0000E948F15948B113039F4AC2FB0E0A953FB
:100BC000BE4F8C918D0F858B8281823009F473C06A
:100BD00081E0DF91CF911F910F91089590E020E087
:100BE000D2CF923091F42C2F30E0D901A953BE4FCF
:100BF0008C91BA01681B7109CB012C533E4FD9016E
:100C00006C9170E00E949B15848B113009F7D5CF51
:100C100004854281242F30E00F3FF1F14F3FE1F195
:100C200086E0829FD001839FB00D1124AE54BE4F49
:100C3000A00FB11D13969C918085A82FB0E0B9013B
:100C400069567E4FEB016881691B770B6A177B073A
:100C5000B4F1182F191B158B9385913011F0423088
:100C6000E9F4C90189539E4FEC0188818A0F9B2FBB
:100C7000911DD901AC53BE4F6C9170E00E949B1541
:100C8000848B013009F0A0CF2C533E4FD9018C91B9
:100C9000D12FD81BD58B98CF90E0CECF923039F49E
:100CA000D901AC53BE4F6C910E948F15948B0130CB
:100CB00009F08ECFE9CF84898D5F848B89CF80E066
:100CC00088CF90E0113009F065CF59CFFC016283E5
:100CD000089521E0FC01278708956F3FD1F0FC01C2
:100CE00024852F3FB1F032813F3F99F0862F90E06D
:100CF000BC01660F771F680F791FF6E03F9F600DFC
:100D0000711D11246E547E4F620F711DFB01808195
:100D1000089580E00895FC0182810895262FFC014A
:100D20004085648587E396E00C949F0CCF93DF9316
:100D3000EC0188859889981751F0888BCE010E9424
:100D40009E056FEFCE01DF91CF910C948E06DF915F
:100D5000CF9108958EE096E00C944007BC0181E3AA
:100D600091E00C943F05CF93DF93EC018A858F3F90
:100D700009F08B8B8985813089F48B8981110CC0B6
:100D80002885AA81B0E0A857BE4F8C9190E00296CA
:100D90002817190609F094F480E019C08111FCCFDE
:100DA0008B898130C9F72885AA81B0E0A656BE4F4D
:100DB0008C918250990B2817190674F78FEF9FEFCB
:100DC0000E94AE0660E0CE010E948E0681E0DF91B7
:100DD000CF91089581E391E00C94A70ACF93DF931C
:100DE000EC0160E082E00E94150260E083E00E9476
:100DF000150260E084E00E94150261E085E00E9437
:100E0000150261E086E00E94150261E085E00E9423
:100E1000A80161E086E00E94A8010E94EA068FEF27
:100E20008A831B821C821E821D821F821D861E8653
:100E30001F86188A91E0998B1A8A8B8B18868A876D
:100E40001D8ADF91CF9108958EE096E00C948B0679
:100E50008EE096E00C94EE06682F84E296E00C9407
:100E60002F0881E00E942C078EE096E00C94F50A92
:100E700084E296E00C9432088EE296E00C944F08DF
:100E8000CF93DF93EC018EE296E00E946E088EE233
:100E900096E00E94550888870E943C0789878EE269
:100EA00096E00E944C088A878EE296E00E945208E3
:100EB0008B878EE296E00E9449088C87DF91CF9164
:100EC0000895AB01BC0187E396E00C940D118AED07
:100ED00096E00C948A098AED96E00C94A0090C9493
:100EE0006B07DF92EF92FF920F931F93CF93DF93E5
:100EF000EC01D62E142F79010E943807823021F59B
:100F000082E1E114F104C1F0D11600F5EA81F0E0CC
:100F1000E455FE4F80811817C8F4DB821C83FE82E3
:100F2000ED820F838FEF8E871D861F8683E00E94E0
:100F30002C070E946B0780E0DF91CF911F910F91EA
:100F4000FF90EF90DF9008958FEEF6CF81E1F4CF20
:100F5000682F8AED96E00C94BC090895CF92DF9239
:100F6000EF92FF921F93CF93DF93EC018A8182303F
:100F7000F9F088F48823E1F08130F9F08B818A83DD
:100F800087E396E0DF91CF911F91FF90EF90DF9084
:100F9000CF900C941D10843031F1E0F0853071F762
:100FA0008B81813079F560E086E00E94A80127C03E
:100FB00060E085E00E94A801E1CF60E085E00E944A
:100FC000A8018EE096E00E94B3068823B9F282E081
:100FD0008B83D4CF61E085E00E94A8018EE096E08B
:100FE0000E942C0DCBCF8EE096E00E94960680E00A
:100FF00091E00E94340E8B81813009F0BFCF0E94B6
:101000002807BCCF0E94A2036B017C018E819F81C7
:10101000A885B985A7019601281B390B4A0B5B0BE4
:10102000DA01C901843F9140A105B10508F4A6CFBA
:101030006D8185E00E94A8016D8111E0612786E045
:101040000E94A8018D8181278D83CE82DF82E88670
:10105000F9866C818EE096E00E948E068FCFFC01AF
:1010600063830895FC0182810895CF93DF93EC019F
:101070001A821B821D820E94A2036E837F8388874F
:1010800099871C82DF91CF9108950895FC01828198
:101090000895FC0184810895FC0186810895FC0176
:1010A00085810895FC0183810895FC01878108955D
:1010B000FC01628317828FEF85838683138284838A
:1010C00010860895662329F0613031F090E080E0C9
:1010D00008958FE00C9446028EE0FCCF0F931F938F
:1010E000CF93DF93EC018FEF8E8382E00E947F012C
:1010F00011E0009709F410E02885211169C00097DC
:1011000009F466C083E00E947F0121E0892B09F485
:1011100020E02D838D81813059F49F81EA81F0E0B8
:10112000E956FE4F8081981718F48F818F5F8F8367
:101130008C81823009F444C08C81811103C08A8182
:101140008230F1F18FE00E944602BC019A81292F82
:1011500030E0A901440F551FFA01EF56FE4F0190F0
:10116000F081E02D6E177F0740F045575E4FDA01A2
:101170004D915C914617570718F51E8228573E4F30
:10118000D9010C916E177F0708F06DC081E0923095
:1011900011F41C8204C09C819F3F51F48C8384E035
:1011A0000E947F01892B91F482E08B830F8308C01A
:1011B0009C81981799F39F81091780F782E08C83AF
:1011C0001887DF91CF911F910F91089581E0EDCFA6
:1011D00028852223A9F3892B99F783E00E947F01B8
:1011E00021E0892B09F020E02D838D8181110BC036
:1011F0009F81EA81F0E0E755FE4F8081891718F45E
:101200008F8181508F838EE00E9446022A8130E0D8
:10121000220F331FF901ED55FE4F40815181841794
:10122000950740F023563E4FF90120813181281760
:10123000390730F621E02E838417950720F48C813E
:10124000823009F01C8284E00E947F01892B49F4DE
:1012500081E08B83EA81F0E0E656FE4F80818F8348
:10126000AFCF82E0F6CF80E0923009F094CF1C82BD
:10127000045F95CF0895E1E7F5E0A089B18922E008
:101280002C93A485B5851C92A685B78520E12C9367
:10129000108EA489B58926E02C93A289B3892C915C
:1012A00020612C93A289B3892C9128602C93A28968
:1012B000B3892C9120682C93A289B3892C912F7D1E
:1012C0002C93DC01AC5BBF4FED93FC93FC01EA5B1C
:1012D000FF4F21E637E031832083885B9F4FFC017D
:1012E0001182108208950895CF93DF93FC01218528
:1012F000222369F0EC018AE0808781E0828382E02A
:1013000083830E94A2036C837D838E839F83DF91FE
:10131000CF910895CF93DF93FC012185222369F0BB
:10132000EC0183E0808781E0828382E083830E94F6
:10133000A2036C837D838E839F83DF91CF91089579
:10134000CF93DF93FC012185222369F0EC0185E036
:10135000808781E0828382E083830E94A2036C8382
:101360007D838E839F83DF91CF910895FC018281DD
:101370000895FC0181850895FC011282618708951A
:10138000CF92DF92EF92FF920F931F93CF93DF9351
:10139000EC018881806291E0909341058093630520
:1013A000109242051092640560E085E695E00E9487
:1013B000270181E00E94B202C8810E9458026B019D
:1013C0007C0180913B05811165C081E080933B05E4
:1013D00080933A059FEF909339051092380510924B
:1013E00037058093160580911605C062CC0FC82B77
:1013F000C093160580911505813009F082C01092C6
:1014000015050E9458026B017C018091160580939E
:10141000BB0080913D0590913E05A0913F05B091A4
:101420004005892B8A2B8B2BA1F00E94580200913A
:101430003D0510913E0520913F05309140056C1906
:101440007D098E099F09061717072807390708F431
:1014500042C08091BC0083FDD8CF85EC8093BC0056
:101460000E9458026B017C0180913B05813009F498
:101470004AC080913805811168C080913805E7E144
:10148000F5E0A5EFB4E090E0981751F121912D938C
:101490009F5FFACF80913D0590913E05A0913F0559
:1014A000B0914005892B8A2B8B2B09F48ACF0E949F
:1014B000580200913D0510913E0520913F05309165
:1014C00040056C197D098E099F0906171707280723
:1014D000390708F076CF80913C050E94F40180E046
:1014E0001092F4048093F30485E695E00E94E000F6
:1014F000DF91CF911F910F91FF90EF90DF90CF90F0
:10150000089585EEABCF80913D0590913E05A09169
:101510003F05B0914005892B8A2B8B2B09F4A4CF72
:101520000E94580200913D0510913E0520913F0513
:10153000309140056C197D098E099F090617170720
:101540002807390708F090CFC6CF81E098CF9F9247
:10155000AF92BF92CF92DF92EF92FF920F931F93C1
:10156000CF93DF938C016C0184E0C80ED11C60E046
:10157000C6010E94DA04780195E0E90EF11C61E0F1
:10158000C7010E94DA04D0E0C0E0AA24A394B12CE1
:10159000C6010E94C009A5010C2E01C0440F0A9487
:1015A000EAF7942E9094482F492160E0C6010E94EA
:1015B000BF04C7010E94C009482F492160E0C7014C
:1015C0000E94BF042196C830D10511F7F80113829B
:1015D0001282DF91CF911F910F91FF90EF90DF90DA
:1015E000CF90BF90AF909F900895E898E7E3F1E027
:1015F0008EEA93E0918380838AEA96E091838083E8
:10160000E9E6F0E080818C7F81608083E89A08952C
:101610000F931F93CF938C01C62F0E94380781111F
:1016200015C080E2CF3F71F0F801C2836C2F8EE2CB
:1016300096E00E94580881E00E942C07C8010E9491
:10164000F50A80E0CF911F910F9108958FEEFACFA8
:10165000CF92DF92EF92FF92CF93DF93EC010E9443
:10166000A2036B017C018A818230D1F08330A1F129
:10167000813059F58C819D81AE81BF81C816D90614
:10168000EA06FB0610F18885811186C061E089E0D9
:101690000E94150261E089E00E94A8011A8215C02B
:1016A00061E089E00E94150260E089E00E94A801E3
:1016B00081E08A8383E08B8382E3C80ED11CE11C26
:1016C000F11CCC82DD82EE82FF82DF91CF91FF9010
:1016D000EF90DF90CF90089561E089E00E941502BD
:1016E000E7EBF0E0E491E330C9F148F4E130D1F008
:1016F000E23071F160E089E00E94A80118C0E73093
:10170000C9F1E83009F43FC0E430A1F780918000CE
:1017100080628093800084E190E090938B008093BE
:101720008A0005C084B5806884BD84E187BD81E0FE
:101730008A8382E08B8382E3C80ED11CE11CF11CFA
:10174000CC82DD82EE82FF82888581508887BDCF82
:1017500084B5806284BD84E188BDE9CF809180003A
:1017600080688093800084E190E09093890080936A
:101770008800DDCF8091B00080688093B00084E164
:101780008093B300D4CF8091B00080628093B0008A
:1017900084E18093B400CBCF8B818A8396CF85ED93
:1017A0008093BC0080913D0590913E05A0913F053E
:1017B000B09140050796A11DB11D23E0B695A795F0
:1017C000979587952A95D1F72091BC0024FD03C0F9
:1017D00010923B05089540913D0550913E05609162
:1017E0003F0570914005452B462B472B69F3009729
:1017F000A105B10541F02AE22A95F1F700C0019751
:10180000A109B109E1CF80913C050C94F4010C943D
:1018100065160C9465160C9465160C9465160C945C
:1018200065160C9465160C9465168F929F92AF9274
:10183000BF92CF92DF92EF92FF920F931F93CF93BD
:10184000DF93CDB7DEB7EDB6FEB68C010E5B1F4F52
:10185000D8018D919C91892B09F45AC061157105AD
:1018600009F456C04115510509F452C0CA01019648
:10187000880F991FEDB7FEB7E81BF90B0FB6F89468
:10188000FEBF0FBEEDBF2DB73EB72F5F3F4F6901C3
:1018900080EC8183FB014B01840E951E41E050E0FA
:1018A0003DED6BEDB62E7CEDA72E8E169F06D1F08A
:1018B0002191B601640F751FCA010196DB01203C1E
:1018C00049F4BC928C0D9D1DDC01AC92CA010296BC
:1018D000AC01EBCF2C932B3DD9F78C0D9D1DDC017A
:1018E0003C93F4CFF80180819181DC01ED91FC9172
:1018F0000280F381E02DB6010995F8018081918184
:10190000DC01ED91FC910190F081E02D60EC0995F6
:101910000FB6F894FEBE0FBEEDBE0FB6F894FEBE35
:101920000FBEEDBEDF91CF911F910F91FF90EF9011
:10193000DF90CF90BF90AF909F908F9008959F922F
:10194000AF92BF92CF92DF92EF92FF920F931F93CD
:10195000CF93DF93CDB7DEB72A970FB6F894DEBFEB
:101960000FBECDBF8C01E62EF42E922E60E08EE2EB
:1019700096E00E946208B82EA92E61E08EE296E001
:101980000E946208D82EC92EFE01339688E0DF013E
:101990001D928A95E9F784E889839A820E94380724
:1019A0008B83AC82BD82CE82DF82E886F9860E947C
:1019B0003C078A874AE050E0BE016F5F7F4FC80155
:1019C00002960E94150C2A960FB6F894DEBF0FBE41
:1019D000CDBFDF91CF911F910F91FF90EF90DF90DE
:1019E000CF90BF90AF909F900895CF93DF9300D09A
:1019F0001F92CDB7DEB722E829836A834B8343E089
:101A000050E0BE016F5F7F4F02960E94150C0F9051
:101A10000F900F90DF91CF91089540E0682F87E3FA
:101A200096E00C94F50C1F93CF93DF93FC01158582
:101A3000112339F0EC018685681308C015860E94D1
:101A40006707812FDF91CF911F9108950E940D0D9F
:101A500081E08D8710E0F5CFCF93DF93EC0189898A
:101A6000882351F0198A0E9467078E858F5F8E87C1
:101A70000E940D0D81E08D8788859889981709F45B
:101A800059C0888B8F81882321F060E0CE010E94AD
:101A90008E06CE010E949E05882309F44BC08D89D5
:101AA000282F30E093E0359527959A95E1F7ED8161
:101AB000FE81E20FF31F408150E0877002C0559510
:101AC00047958A95E2F741706C8981E391E00E9425
:101AD00061058D894B81841728F09C81981710F03F
:101AE00091E09A8B90E02A8130E0F901E155FE4FB8
:101AF0005081451B550B841795075CF04C8121558F
:101B00003E4FF9012081420F5527551F48175907AD
:101B10008CF48A89882371F01A8A8F859D859111AA
:101B20000CC081110CC08E858F5F8E870E940D0DB9
:101B300081E08D87DF91CF9108958823D9F38AEDD5
:101B400096E00E94740981E00E942C078FEF9FEFBE
:101B50000E94AE06DF91CF910C946707CF93DF937D
:101B6000EC01CD59DF4F6883DA0121E03D91422F2E
:101B700050E0332341F0480F591FFA01ED59FF4F50
:101B800030832F5FF3CFBE010296DF91CF910C948B
:101B9000150CAC016EEE87E396E00C94AE0D80E878
:101BA00092E00E94C90D82E00E947F01892BF1F42E
:101BB0008CE792E00E94C90D8AE892E00E94C90D6C
:101BC00083E00E947F01892BA1F48CE792E00E94C0
:101BD000C90D84E992E00E94C90D84E00E947F0152
:101BE000892B51F48CE792E00C94C90D87E792E0C1
:101BF000E1CF87E792E0EBCF87E792E0F5CF1F9345
:101C0000CF93DF93EC018FE00E94460229969F93C9
:101C10008F938EE992E09F938F931F9218E21F9308
:101C2000DF93CF930E940417CE010E94C90D8EE06E
:101C30000E9446029F938F938BEA92E09F938F932B
:101C40001F921F93DF93CF930E9404178DB79EB707
:101C500040960FB6F8949EBF0FBE8DBFCE01DF91A8
:101C6000CF911F910C94C90DCF92DF92EF92FF920A
:101C70000F931F93CF93DF93EC010E94A2030C817B
:101C80001D812E813F816B017C01C01AD10AE20ABD
:101C9000F30A97018601043F11402105310588F1BF
:101CA0006C837D838E839F838A81882381F08885DE
:101CB000882369F08AE894E00E94C90DCE010E9451
:101CC000FF0D0E94CF0D8AE894E00E94C90D8B8120
:101CD000882399F088858823E9F088EB92E00E94B8
:101CE000C90D60E085E00E94A80160E086E00E94E6
:101CF000A80185E595E50E94AE06888591E08927D3
:101D00008887DF91CF911F910F91FF90EF90DF9027
:101D1000CF9008958BEC92E00E94C90D61E085E0C0
:101D20000E94A80161E086E00E94A8018AEA9AEA7E
:101D3000E2CFCF93DF93EC018FED92E00E94C90DCB
:101D400081E08B83DF91CF910895CF93DF93EC01F6
:101D500083E093E00E94C90D81E08A83DF91CF91F7
:101D6000089587E293E00E94C90D0E94CF0D8AE892
:101D700094E00C94C90DCF93DF93EC018CE393E0D6
:101D80000E94C90DCE010E94FF0D8AE894E0DF9108
:101D9000CF910C94C90D0F931F93CF93DF93EB0159
:101DA0008A0183E593E00E94C90D0330110540F4D8
:101DB00082E693E0DF91CF911F910F910C94C90DB2
:101DC000898190E0982F88272A81820F911DDF91C9
:101DD000CF911F910F910C94AE06EF92FF920F934B
:101DE0001F93CF93DF93EC018B017A018CE793E093
:101DF0000E94C90D83E0E816F10450F482E693E0F6
:101E0000DF91CF911F910F91FF90EF900C94C90D2E
:101E1000F80161816031C0F029961F926F938EE8BE
:101E200093E09F938F931F9288E28F93DF93CF93DA
:101E30000E940417EDB7FEB738960FB6F894FEBFB0
:101E40000FBEEDBFCE01DCCF42814230B8F0299603
:101E50001F924F9380EB93E09F938F931F9288E2A2
:101E60008F93DF93CF930E940417EDB7FEB7389698
:101E70000FB6F894FEBF0FBEEDBFE4CF417081E313
:101E800091E0DF91CF911F910F91FF90EF900C9413
:101E9000610582ED93E00E94C90D0C946B078FEDF4
:101EA00093E00E94C90D86E094E00E94C90D8FE185
:101EB00094E00E94C90D83E493E00E94C90D8EE274
:101EC00093E00E94C90D89ED93E00E94C90D81E362
:101ED00094E00E94C90D8BE394E00E94C90D83E950
:101EE00094E00E94C90D85E494E00E94C90D81E24E
:101EF00093E00E94C90D8BE494E00C94C90DFF920D
:101F00000F931F93CF93DF93EC01162F0E94380796
:101F1000833008F067C084E00E942C07612F8EE0B8
:101F200096E00E94660681E594E00E94C90D8E014C
:101F3000075F1F4F1F921F921F9283E68F931F927E
:101F40001F9286E694E09F938F931F9288E2F82E6B
:101F5000FF921F930F930E940417C8010E94C90D9E
:101F60008AEC91E00E94C90D1F9286E08F938FE763
:101F700094E09F938F931F92FF921F930F930E9461
:101F80000417C8010E94C90DCE010E944F0FE898A6
:101F90008EEA93E0909338018093370187E395E0D0
:101FA000909338018093370180916900836080931A
:101FB0006900E89A1A821B820E94A2036C837D83C7
:101FC0008E839F8318868DB79EB744960FB6F8947C
:101FD0009EBF0FBE8DBF80E0DF91CF911F910F910B
:101FE000FF9008958FEEF8CF02960C94150CCF93C6
:101FF000DF9300D01F92CDB7DEB78CE894E00E944B
:10200000C90D8091410190914201A09143018983C2
:102010009A83AB8343E050E0BE016F5F7F4F87E35D
:1020200096E00E94F40F8AE894E00E94C90D0F9098
:102030000F900F90DF91CF9108952F923F924F9282
:102040005F926F927F928F929F92AF92BF92CF9248
:10205000DF92EF92FF920F931F93CF93DF9300D005
:1020600000D0CDB7DEB78C012DB63EB65C0124E4BE
:10207000A20EB11CD5018D919C91892B09F4B1C0A0
:102080006801B2E0CB0ED11CF801EE5BFF4F7F017F
:1020900098012A5B3F4F3A832983280138E4430E95
:1020A000511C80EC882ED5018D919C91DC01ED9125
:1020B000FC910084F185E02D0995181619060CF0A5
:1020C00090C0F50180819181DC01ED91FC91028449
:1020D000F385E02D0995803C09F071C0A981BA8192
:1020E000ED91FC91309729F4D2018D919C91892B2F
:1020F00021F16DB67EB6D7010D90BC91A02DBC83A9
:10210000AB832DB73EB72A1B3B0B0FB6F8943EBFEF
:102110000FBE2DBF8DB79EB7019650E040E070E036
:1021200060E0AB2B81F4309709F43FC0BA01099508
:102130000FB6F8947EBE0FBE6DBEF70111821082FD
:10214000B2CF9B01B901AB81BC816A177B0758F7FD
:102150009601260F371FD9019C909B012F5F3F4F9F
:10216000B0EC9B1679F3ABED9A1219C02C0D3D1D06
:10217000D9012C912C3D59F49C01240F351FD90114
:102180008C929B012E5F3F4F4F5F5F4FDBCF2D3D0A
:10219000C1F69C01240F351FD9019C92F2CFBC01DE
:1021A000640F751FDB019C92EFCFD201ED91FC9182
:1021B000309709F4BDCFBC01C6010995B9CFD7014D
:1021C0002D913C911197A9014F5F5F4F403451050C
:1021D00008F069CF4D935C93200F311FF901828382
:1021E00062CF0FB6F8943EBE0FBE2DBE0F900F907B
:1021F0000F900F90DF91CF911F910F91FF90EF9073
:10220000DF90CF90BF90AF909F908F907F906F9016
:102210005F904F903F902F9008959F92AF92BF9202
:10222000CF92DF92EF92FF920F931F93CF93DF93A2
:10223000CDB7DEB766970FB6F894DEBF0FBECDBF41
:1022400041155105A9F06A017B018C01FB019081C8
:10225000983209F416C150F5953009F460C0D0F4F5
:10226000933009F4DFC008F0F5C0913009F48AC05A
:1022700066960FB6F894DEBF0FBECDBFDF91CF914B
:102280001F910F91FF90EF90DF90CF90BF90AF9094
:102290009F900895963209F4EAC008F0EDC0953297
:1022A00039F780E091E00E944F0FE2CF9C3209F4B1
:1022B000F7C050F49A3209F4EEC008F4E7C080E0A9
:1022C00091E00E94B10ED4CF9E3209F4F3C008F41D
:1022D000ECC09F3209F4F3C0923451F60E942407F7
:1022E000E82FF0E0EB57FE4F8081A82EB12C95012E
:1022F0002B5F3F4FC216D30608F4BACFF701C18057
:10230000D380D7011496F801E65BFF4F90E0891760
:1023100009F46DC02D91209521939F5FF8CF58014E
:10232000F2E0AF0EB11C4330510568F485EC8983AF
:1023300081E08A8342E050E0BE016F5F7F4FC501BC
:102340000E94150C95CF62E070E0C7010E948C00DE
:10235000F7019281981721F085EC898384E0E9CF19
:10236000F18049E150E06FEF70E0C801865B9F4F5C
:102370000E94EE166F2D8EE096E00E94080B95EC01
:102380009983D7CF5801F2E0AF0EB11C453051050B
:1023900020F481EC89839A83CDCFFB01D38064E064
:1023A00070E0C7010E948C00F7019481981711F02A
:1023B00081ECD3CFC1809280D1FA882780F90E9426
:1023C000A8077801FAE4EF0EF11C49E150E06FEF45
:1023D00070E0C7010E94EE160D2D01709701492D86
:1023E0006C2D8EE096E00E94710791ECC9CFB5018B
:1023F0006C5F7F4FC7010E948C00EA0CFB1CF70149
:102400009481981335CF6C2D8EE096E00E94130DC9
:10241000882309F42DCFD0FE2BCF8EE096E00E94CA
:10242000690626CF83EC898386E08A831B8283E654
:102430008C831D8240E150E066E771E0CE01069694
:102440000E94F51646E150E0BE016F5F7F4FC80164
:10245000029676CF0E942407682F80E091E00E94C8
:102460007F0F94EC99838A8342E050E0EDCF80E0C7
:1024700091E00E94F70FFCCE80E091E00E94490FAE
:10248000F7CE80E091E00E94ED0EF2CE80E091E088
:102490000E94CB0EEDCE80E091E00E94BB0EE8CE14
:1024A00080E091E00E94A50EE3CE80E091E00E94E2
:1024B000990EDECE80E091E00E943B05D9CE80E00F
:1024C00091E00E943107D4CE1F920F920FB60F9267
:1024D00011242F933F934F935F936F937F938F9329
:1024E0009F93AF93BF93EF93FF938091B900887F41
:1024F000803609F44AC0F0F5883209F4A7C018F50F
:10250000803109F49BC0B8F4882309F4F9C08830FD
:1025100009F494C0FF91EF91BF91AF919F918F917A
:102520007F916F915F914F913F912F910F900FBECF
:102530000F901F901895883109F488C0803251F7A8
:102540008093390514C0803409F49DC040F4803371
:10255000B9F38833F9F68093390585ECB0C080353E
:1025600009F485C0883509F496C0883499F60E942C
:10257000CF0BD0CF883909F48CC038F5883729F0D3
:1025800050F4883611F0803729F683E080933B05BC
:102590001092F20457C0883809F47BC0803919F0D2
:1025A000803809F0B7CF8091F204803208F071C012
:1025B000E091F20481E08E0F8093F2048091BB00E1
:1025C000F0E0EE52FB4F80833DC0803B39F0E0F4F9
:1025D000803A09F479C0883A09F09CCF84E080936E
:1025E0003B051092CF041092CE04E091CC04F09100
:1025F000CD0409958091CE0481110FC081E08093B4
:10260000CE041092AC0409C0803C09F4A6CF883CEB
:1026100009F4A3CF883B09F07DCFE091CF0481E09E
:102620008E0F8093CF04F0E0E455FB4F80818093C0
:10263000BB009091CF048091CE0429C080911605F3
:102640008093BB0085EC8093BC0064CF90913805EB
:1026500080913705981758F5E091380581E08E0F85
:1026600080933805F0E0E95EFA4F8081E9CFE09190
:10267000380581E08E0F809338058091BB00F0E033
:10268000E95EFA4F8083909138058091370598175D
:10269000C8F285E8D8CFE091380581E08E0F8093AD
:1026A00038058091BB00F0E0E95EFA4F80838091AD
:1026B0003A0581115CCF81E08093150584EA80930F
:1026C000BC0010923B0526CF85EC8093BC00109295
:1026D0003B058091F204803230F4E091F204F0E0A6
:1026E000EE52FB4F10826091F20470E0E091D00452
:1026F000F091D10482ED94E009951092F2040ACF92
:102700001092390534CF1F920F920FB60F921124F9
:102710002F933F938F939F93AF93BF938091A30485
:102720009091A404A091A504B091A6043091A204B4
:1027300023E0230F2D3758F50196A11DB11D2093DD
:10274000A2048093A3049093A404A093A504B0933F
:10275000A6048091A7049091A804A091A904B09127
:10276000AA040196A11DB11D8093A7049093A8040B
:10277000A093A904B093AA04BF91AF919F918F91A8
:102780003F912F910F900FBE0F901F90189526E844
:10279000230F0296A11DB11DD2CF1F920F920FB62B
:1027A0000F9211242F933F934F935F936F937F93D7
:1027B0008F939F93AF93BF93EF93FF93E091390172
:1027C000F0913A010995FF91EF91BF91AF919F91DF
:1027D0008F917F916F915F914F913F912F910F90CA
:1027E0000FBE0F901F9018951F920F920FB60F9269
:1027F00011242F933F934F935F936F937F938F9306
:102800009F93AF93BF93EF93FF93E0913701F091C4
:1028100038010995FF91EF91BF91AF919F918F91F1
:102820007F916F915F914F913F912F910F900FBECC
:102830000F901F9018951F920F920FB60F921124B0
:102840002F933F934F935F936F937F938F939F93B8
:10285000AF93BF93EF93FF9381E795E00E9430041D
:10286000FF91EF91BF91AF919F918F917F916F9168
:102870005F914F913F912F910F900FBE0F901F903E
:1028800018951F920F920FB60F9211242F938F93CA
:102890009F93EF93FF93E0918105F09182058081F2
:1028A000E0918705F091880582FD1BC090818091A1
:1028B0008A058F5F8F7320918B05821741F0E0911D
:1028C0008A05F0E0EF58FA4F958F80938A05FF91C3
:1028D000EF919F918F912F910F900FBE0F901F90AE
:1028E00018958081F4CFE5E6F5E01382128288EE38
:1028F00093E0A0E0B0E084839583A683B7832DEDB9
:1029000031E031832083E1E7F5E013821282848392
:102910009583A683B7838FEE91E09183808385ECC6
:1029200090E09587848784EC90E09787868780EC99
:1029300090E0918B808B81EC90E0938B828B82EC8A
:1029400090E0958B848B86EC90E0978B868B118E34
:10295000128E138E148E85E692E09093DB068093A0
:10296000DA0681E092E09093380680933706109261
:102970007A061092790610927C0610927B061092CD
:102980007E0610927D061092800610927F06E1E886
:10299000F6E089E1DF011D928A95E9F7EAE9F6E0C0
:1029A00080E4DF011D928A95E9F78BE492E0909331
:1029B0002F0680932E068BE392E09093250680935A
:1029C000240687E192E090930F0680930E06089507
:1029D000789484B5826084BD84B5816084BD85B5FA
:1029E000826085BD85B5816085BD80916E00816006
:1029F00080936E00109281008091810082608093AC
:102A000081008091810081608093810080918000AD
:102A10008160809380008091B10084608093B100D8
:102A20008091B00081608093B00080917A008460D2
:102A300080937A0080917A00826080937A008091FE
:102A40007A00816080937A0080917A008068809318
:102A50007A001092C10082E090E00E94C9152AEA33
:102A600035E5FC01318320839093A1048093A00479
:102A700080E00E94A80787E396E00E943B0984E279
:102A800096E00E9435080E9428070E94EA06C0E0EE
:102A9000D0E0E091A004F091A104808191818A3A74
:102AA000954529F145E050E069E974E081E795E05A
:102AB0000E94AF0361E08DE00E94150261E086E0B4
:102AC0000E94150260E086E00E94A80160E08DE0AF
:102AD0000E94A8010E947D0261E086E00E94A80198
:102AE00061E08DE00E94A8010E947D02DBCF84E2BC
:102AF00096E00E94AE078AED96E00E94B90988230D
:102B000021F08AED96E00E94280B209711F20E9496
:102B10001C04882309F4BDCF0E940000BACF991B82
:102B200079E004C0991F961708F0961B881F7A95C4
:102B3000C9F78095089597FB072E16F4009407D0E7
:102B400077FD09D00E94AF1507FC05D03EF49095A3
:102B500081959F4F0895709561957F4F0895AA1BA9
:102B6000BB1B51E107C0AA1FBB1FA617B70710F078
:102B7000A61BB70B881F991F5A95A9F780959095AA
:102B8000BC01CD010895EE0FFF1F0590F491E02DDB
:102B900009940F931F93CF93DF938230910510F424
:102BA00082E090E0E091E606F091E70630E020E078
:102BB000B0E0A0E0309799F42115310509F44AC03E
:102BC000281B390B24303105D8F58A819B8161158A
:102BD000710589F1FB0193838283FE0111C040815D
:102BE00051810281138148175907E0F048175907AE
:102BF00099F4109761F012960C93129713961C9308
:102C00003296CF01DF91CF911F910F9108950093DC
:102C1000E6061093E706F4CF2115310551F042176F
:102C2000530738F0A901DB019A01BD01DF01F8016A
:102C3000C1CFEF01F9CF9093E7068093E606CDCFA1
:102C4000FE01E20FF31F81939193225031093983E2
:102C50002883D7CF2091E4063091E506232B41F459
:102C600020913D0130913E013093E5062093E4062A
:102C700020913B0130913C012115310541F42DB7E4
:102C80003EB740913F0150914001241B350BE0912C
:102C9000E406F091E506E217F307A0F42E1B3F0BC4
:102CA0002817390778F0AC014E5F5F4F24173507BE
:102CB00048F04E0F5F1F5093E5064093E406819362
:102CC00091939FCFF0E0E0E09CCFCF93DF9300970C
:102CD000E9F0FC01329713821282A091E606B091CE
:102CE000E706ED0130E020E01097A1F4208131816A
:102CF000820F931F2091E4063091E50628173907CB
:102D000009F061C0F093E506E093E406DF91CF910E
:102D10000895EA01CE17DF07E8F54A815B819E013D
:102D200041155105B1F7E901FB83EA8349915991B6
:102D3000C40FD51FEC17FD0761F4808191810296C5
:102D4000840F951FE90199838883828193819B83F6
:102D50008A83F0E0E0E012968D919C9113970097A2
:102D6000B9F52D913C911197CD010296820F931FD9
:102D70002091E4063091E5062817390739F6309797
:102D800051F51092E7061092E606B093E506A0937F
:102D9000E406BCCFD383C28340815181840F951F49
:102DA000C817D90761F44E5F5F4F88819981480F3A
:102DB000591F518340838A819B819383828321158C
:102DC000310509F0B0CFF093E706E093E6069ECF19
:102DD000FD01DC01C0CF13821282D7CFDC0101C01C
:102DE0006D9341505040E0F70895FB01DC014150E4
:102DF000504048F001900D920020C9F701C01D928B
:102E000041505040E0F70895AEE0B0E0EAE0F7E16D
:102E10000C94C0190D891E898F89988D26E02C830A
:102E20001A83098397FF02C080E090E801979E8390
:102E30008D83AE01455E5F4F698D7A8DCE0101961F
:102E40000E9434174D815E8157FD0AC02F8138855D
:102E5000421753070CF49A01020F131FF801108256
:102E60002E96E4E00C94DC19ABE0B0E0EAE3F7E185
:102E70000C94B2197C013B018A01FC011782168275
:102E8000838181FFC8C1CE0101965C01F701938166
:102E9000F30193FD859193FF81913F01882309F40C
:102EA00053C1853239F493FD859193FF81913F01A0
:102EB000853229F4B70190E00E942419E7CF912CC4
:102EC000212C312CFFE1F31538F08B3211F190F405
:102ED000803209F1833229F137FC3CC020ED280F04
:102EE0002A3050F536FE20C08AE0989E200D11242D
:102EF000922E06C08D3291F0803371F7689430F8CD
:102F0000F30193FD859193FF81913F018111DACF08
:102F100021C0689431F8689432F8F2CF689433F89D
:102F2000EFCF689434F8ECCFEAE02E9E200D112408
:102F3000222E689435F8E4CF8E3229F436FC04C191
:102F4000689436F8DDCF8C3619F4689437F8D8CF0A
:102F50008836B1F2982F9F7D95549330E0F08336F8
:102F6000A1F18337C1F1833509F063C02801F2E094
:102F70004F0E511CF801C080D180692D70E036FCE5
:102F800002C06FEF7FEFC6010E940E194C016894DA
:102F900037F882010AC00C5F1F4FFFE3F9838824D2
:102FA0008394912C6501E89437F833FE2DC0522CA0
:102FB0008114910471F5552009F468CFB70180E2BE
:102FC00090E00E9424195A94F6CFF80180818983F9
:102FD0000E5F1F4FE4CF2801F2E04F0E511CF801A5
:102FE000C080D180692D70E036FC02C06FEF7FEFAA
:102FF000C6010E9419194C018201D5CFB70180E2A8
:1030000090E00E9424192A942814190409F0B0F7BA
:10301000CECFF60137FC859137FE81916F01B70164
:1030200090E00E94241951105A94F1E08F1A9108EF
:10303000BFCF843619F0893609F077C0F80137FE22
:103040006BC060817181828193810C5F1F4FF32D72
:10305000FF763F2E97FF09C09095809570956195FA
:103060007F4F8F4F9F4F689437F82AE030E0A501DB
:103070000E945419C82ECA188C2C432C36FE0CC042
:10308000E89440F8C91440F434FE05C032FC03C093
:10309000F32DFE7E4F2E892C44FE95C0FE01EC0DD3
:1030A000F11D8081803309F087C0242D297E422EB6
:1030B000842D8870582E43FC95C040FE8FC09C2CF8
:1030C000821418F42C0C922C981844FE91C0B7016D
:1030D00080E390E00E94241942FE09C088E790E056
:1030E00041FE02C088E590E0B7010E942419C9148E
:1030F00008F48AC0CA94D12C9FEFC91AD90ACA0C05
:10310000DB1CF60182916F01B70190E00E94241947
:10311000AC14BD04B1F74FCF60817181072E000C54
:10312000880B990B0E5F1F4F92CFD32CE894D4F8E5
:103130002AE030E0853739F1232D297FD22E8F36D2
:1031400001F148F48835A9F0F701868197812B9623
:10315000E2E10C94CE19803749F08837A9F7D4FE04
:1031600002C06894D2F820E130E00DC06894D4F831
:10317000F6CF34FE03C0822F8660D82E20E132E0E5
:1031800002C028E030E0F801D7FE0FC060817181F5
:10319000828193810C5F1F4FA5010E945419C82E94
:1031A000CA183D2CE89437F867CF6081718190E0B0
:1031B00080E00E5F1F4FF0CF42FC02C0839478CFB7
:1031C0008394839475CF842D867809F471CFF6CFDC
:1031D000B70180E290E00E94241983948214C0F326
:1031E000512C73CF522C5818821408F46ECFF8CF9C
:1031F000842D867809F47BCF8BE241FE80E247FC88
:103200008DE2B70190E071CFB70180E390E00E94BA
:1032100024199A946CCF8FEF9FEF99CFFC01059002
:10322000615070400110D8F7809590958E0F9F1FC8
:103230000895FC016150704001900110D8F780950D
:1032400090958E0F9F1F08950F931F93CF93DF9339
:10325000182F092FEB018B8181FD09C01FEF0FEFA4
:10326000812F902FDF91CF911F910F91089582FFB1
:1032700014C02E813F818C819D81281739073CF431
:10328000E881F981CF0101969983888310838E812B
:103290009F8101969F838E83E3CFE885F985812FF7
:1032A0000995892BA1F3DACFFA01AA27283051F129
:1032B000203181F1E8946F936E7F6E5F7F4F8F4F67
:1032C0009F4FAF4FB1E03ED0B4E03CD0670F781FC6
:1032D000891F9A1FA11D680F791F8A1F911DA11DAB
:1032E0006A0F711D811D911DA11D20D009F46894E4
:1032F0003F912AE0269F11243019305D3193DEF68C
:10330000CF010895462F4770405D4193B3E00FD041
:10331000C9F7F6CF462F4F70405D4A3318F0495D2C
:1033200031FD4052419302D0A9F7EACFB4E0A6950F
:103330009795879577956795BA95C9F70097610531
:10334000710508959B01AC010A2E06945795479587
:1033500037952795BA95C9F7620F731F841F951F7C
:10336000A01D08952F923F924F925F926F927F928D
:103370008F929F92AF92BF92CF92DF92EF92FF9285
:103380000F931F93CF93DF93CDB7DEB7CA1BDB0B31
:103390000FB6F894DEBF0FBECDBF09942A883988D6
:1033A00048885F846E847D848C849B84AA84B984DD
:1033B000C884DF80EE80FD800C811B81AA81B981E9
:1033C000CE0FD11D0FB6F894DEBF0FBECDBFED01FD
:0633D0000895F894FFCF00
:1033D600480100000000000000000000000000009E
:1033E60000000000000000000000000000000000D7
:1033F60000000000000000000000000000000000C7
:10340600006C0100000000AE03AE030000E8068079
:1034160000313233000000009B05070C7F0F340E8D
:103426004F0FF70F490FED0ECB0EBB0EB10EA50ECB
:10343600990E3B0531076F07000000009C05090C3B
:10344600A70A61053F057263332D372D6735313085
:10345600323765610019190E1C1C055802580258AE
:1034660002C800C800C800FFFF8CE3E387FF0358CB
:10347600025802C80000000000000000C8C8700C16
:103486000C062828201010382828201010381C0078
:103496000010000010100C0808067263332D372D3B
:1034A600673531303237656100000000002701FAC8
:1034B60000DC03D000F300E000D100000000005261
:1034C60004AF03DF039F041004EE030204000000B0
:1034D600003A09110C3B091D10F40FAE0DF50C9FB7
:1034E6000C0D11000000009D050B0CEE06F50A40C0
:1034F600077107080B9606B3062C0D8E066D068B14
:1035060006130D6906660600000000AD070D0C35B2
:103516000832082F08AE070000000045080F0C6EA1
:1035260008620858084608520849084F084C0855CA
:1035360008000000007309130CBC09B909B609A0FC
:10354600098A097409280B48494748004C4F570017
:103556002020454E435F413A20002020454E435FE0
:10356600423A20002020454E435F433A2000202067
:10357600454F4C5F4C3A20256875002020454F4C3E
:103586005F523A2025687500536574206F64642085
:10359600736F6C656E6F6964730A0053657420659A
:1035A60076656E20736F6C656E6F6964730A00438F
:1035B600616C6C6564206175746F546573742C203E
:1035C60073656E642073746F7020746F20717569F3
:1035D600740A0043616C6C6564206175746F526592
:1035E60061642C2073656E642073746F7020746F31
:1035F60020717569740A0043616C6C65642072659C
:103606006164456E636F646572730A0043616C6C36
:1036160065642072656164454F4C73656E736F72A5
:10362600730A0043616C6C656420736574416C6C4D
:103636000A004572726F723A20696E76616C69642F
:1036460020617267756D656E74730A0043616C6CF8
:1036560065642073657453696E676C650A0045720C
:10366600726F723A20696E76616C696420736F6C52
:10367600656E6F696420696E6465782025690A0045
:103686004572726F723A20696E76616C6964207356
:103696006F6C656E6F69642076616C75652025694F
:1036A6000A0043616C6C656420626565700A0054AB
:1036B600686520666F6C6C6F77696E6720636F6DE7
:1036C6006D616E64732061726520617661696C61FB
:1036D600626C653A0A0073657453696E676C65209F
:1036E6005B302E2E31355D205B312F305D0A007345
:1036F6006574416C6C205B302E2E464646465D0A4C
:10370600006175746F526561640A006175746F5467
:103716006573740A0073746F700A0068656C700ACA
:1037260000415941422048617264776172652054B4
:103736006573742C20004669726D77617265207618
:10374600256868752E256868752E256868750020B9
:103756004150492076256868750A0A0043616C6CF9
:1037660065642073656E640A0050414E494300004B
:00000001FF
