:100000000C9462000C940A140C94E3130C948A0070
:100010000C948A000C948A000C948A000C948A0038
:100020000C948A000C948A000C948A000C948A0028
:100030000C948A000C948A000C948A000C948A0018
:100040000C9499130C948A000C9457140C9431144A
:100050000C948A000C948A000C948A000C948A00F8
:100060000C947A120C948A000000000024002700EF
:100070002A0000000000250028002B0000000000DE
:1000800023002600290004040404040404040202DA
:100090000202020203030303030301020408102007
:1000A0004080010204081020010204081020000012
:1000B0000008000201000003040700000000000027
:1000C0000000891411241FBECFEFD8E0DEBFCDBFE2
:1000D00014E0A0E0B1E0EAE8F3E302C005900D927D
:1000E000A837B107D9F726E0A8E7B4E001C01D9210
:1000F000AF3BB207E1F710E0C2E6D0E004C02197C1
:10010000FE010E949D15C136D107C9F70E94FE1459
:100110000C94C3190C940000FC01680F791F90E047
:100120005CE8E617F70789F0419188E0A92FA4273A
:10013000292F30E035952795922FA0FF02C0952FEB
:1001400092274695815091F7ECCF892F0895209101
:10015000A404260F3327331F21323105ECF42091FC
:100160001105FC0190E080E0243069F082E0089500
:10017000A091A4042191AC014E575B4FA40FB52F61
:10018000B11D2C930196861798F38091A404680FF3
:100190006093A40480E0089581E00895089508958F
:1001A0000895E091CA048091C904E81730F4F0E0A2
:1001B000E553FB4F808190E008958FEF9FEF089506
:1001C0009091CA048091C9042FEF3FEF981748F42B
:1001D000E92FF0E0E553FB4F208130E09F5F9093E3
:1001E000CA04C90108958091C9049091CA04891B69
:1001F000990B0895CF92DF92EF92FF920F931F9386
:10020000CF93DF937C01CB018A0120911705222334
:1002100089F0EB016B01C40ED51ECC15DD0569F02C
:100220006991D701ED91FC910190F081E02DC7011A
:100230000995F3CF642F0E94A700C801DF91CF91E9
:100240001F910F91FF90EF90DF90CF900895CF9383
:10025000DF931F92CDB7DEB7698320911705222364
:10026000F9F020913A05203258F021E030E0FC010D
:100270003383228390E080E00F90DF91CF91089547
:1002800080911805E82FF0E0E75EFA4F998190839E
:100290008F5F8093180580933A0581E090E0ECCF62
:1002A00061E0CE0101960E94A700F7CF833081F074
:1002B00028F4813099F08230A9F008958730A9F0B0
:1002C0008830C9F08430B1F4809180008F7D03C004
:1002D000809180008F7780938000089584B58F7718
:1002E00084BD089584B58F7DFBCF8091B0008F775A
:1002F0008093B00008958091B0008F7DF9CFCF93A7
:10030000DF93282F30E0F901E255FF4F8491F90186
:10031000E656FF4FD491F901EA57FF4FC491CC2321
:10032000A1F081110E945601EC2FF0E0EE0FFF1FAB
:10033000E458FF4FA591B491EC91ED2381E090E05A
:1003400009F480E0DF91CF91089580E090E0FACF4A
:100350001F93CF93DF93282F30E0F901E255FF4F31
:100360008491F901E656FF4FD491F901EA57FF4F06
:10037000C491CC23A9F0162F81110E945601EC2FB5
:10038000F0E0EE0FFF1FEE58FF4FA591B4918FB72D
:10039000F894EC91111108C0D095DE23DC938FBF47
:1003A000DF91CF911F910895DE2BF8CF10921105A8
:1003B00081E0809310051092EB0461E082E10E94DD
:1003C000A80161E083E10E94A801E9EBF0E08081EF
:1003D0008E7F808380818D7F808388E48093B800C6
:1003E00085E48093BC000895CF93DF9391E09093D0
:1003F00081048823B9F0C091B800D091BA008091EF
:10040000BC008A7B8093BC0060E082E10E94A8016E
:1004100060E083E10E94A8010E94D601D093BA0057
:10042000C093B800DF91CF910895CF93DF9390E010
:10043000FC01E656FF4F24918A579F4FFC0184919F
:100440008823D1F090E0880F991FFC01E859FF4FF5
:10045000A591B491FC01EE58FF4FC591D491611163
:100460000EC09FB7F8948C91E22FE0958E238C9369
:100470002881E223E8839FBFDF91CF9108958FB752
:10048000F894EC91E22BEC938FBFF6CF8E50806402
:1004900080937C0080917A00806480937A008091C0
:1004A0007A0086FDFCCF80917800909179000895C4
:1004B0003FB7F89480917D0490917E04A0917F04D1
:1004C000B091800426B5A89B05C02F3F19F0019676
:1004D000A11DB11D3FBFBA2FA92F982F8827BC019E
:1004E000CD01620F711D811D911D42E0660F771FC6
:1004F000881F991F4A95D1F708958F929F92AF92C6
:10050000BF92CF92DF92EF92FF920F931F93CF9300
:10051000DF93D0913A05D13208F0D7C0182FC0919F
:1005200039050E9458026B017C01809111058111EF
:100530006BC082E080931105109310058FEF8093BC
:100540000F0510920E05D0930D05A9E1B5E0EDEE73
:10055000F4E080E0D81391C01092EC048091EC0498
:10056000CC0FC82BC093EC048091EB04813009F0D0
:1005700088C01092EB040E9458026B017C018091AC
:10058000EC048093BB008091130590911405A09119
:100590001505B0911605892B8A2B8B2BA1F00E9493
:1005A0005802009113051091140520911505309102
:1005B00016056C197D098E099F090617170728076C
:1005C000390708F442C08091BC0083FDD8CF85EC88
:1005D0008093BC000E9458026B017C018091110540
:1005E000823009F450C080910F058F3F09F46FC02D
:1005F00080910F05803209F46CC080910F05803323
:1006000009F469C084E026C0809113059091140517
:10061000A0911505B0911605892B8A2B8B2B09F417
:1006200084CF0E9458028090130590901405A090EA
:100630001505B09016056C197D098E099F0986165F
:100640009706A806B90608F070CF809112050E949F
:10065000F40185E01092180510923A0510921705E2
:10066000DF91CF911F910F91FF90EF90DF90CF908E
:10067000BF90AF909F908F9008959D9191938F5FC1
:1006800069CF85EEA5CF8091130590911405A091B7
:100690001505B0911605892B8A2B8B2B09F49ECF5B
:1006A0000E94580200911305109114052091150520
:1006B000309116056C197D098E099F0906171707D9
:1006C0002807390708F08ACFC0CF81E0C3CF80E088
:1006D000C1CF82E0BFCF83E0BDCF2FB7F894609148
:1006E000790470917A0480917B0490917C042FBFEF
:1006F00008950895AF92BF92CF92DF92EF92FF924A
:100700000F931F93CF93DF936C017B018B01040F39
:10071000151FEB015E01AE18BF08C017D10759F0D5
:100720006991D601ED91FC910190F081E02DC60117
:100730000995892B79F7C501DF91CF911F910F9111
:10074000FF90EF90DF90CF90BF90AF90089590E032
:1007500080E00895FC01538D448D252F30E0842FD7
:1007600090E0821B930B541710F0CF9608950197D9
:100770000895FC01918D828D981761F0A28DAE0FC6
:10078000BF2FB11D5D968C91928D9F5F9F73928F4D
:1007900090E008958FEF9FEF0895FC01918D828D79
:1007A000981731F0828DE80FF11D858D90E0089546
:1007B0008FEF9FEF0895FC01918D228D892F90E09E
:1007C000805C9F4F821B91098F739927089587E45E
:1007D00095E00E94DB0321E0892B09F420E0822FC1
:1007E000089580E090E0892B29F00E94E7038111B1
:1007F0000C9400000895FC01A48DA80FB92FB11D21
:10080000A35ABF4F2C91848D90E001968F73992746
:10081000848FA689B7892C93A089B1898C91837024
:1008200080648C93938D848D981306C00288F3891D
:10083000E02D80818F7D80830895EF92FF920F934A
:100840001F93CF93DF93EC0181E0888F9B8D8C8D7C
:1008500098131AC0E889F989808185FF15C09FB770
:10086000F894EE89FF896083E889F9898081837033
:10087000806480839FBF81E090E0DF91CF911F91E2
:100880000F91FF90EF900895F62E0B8D10E00F5F03
:100890001F4F0F731127E02E8C8D8E110CC00FB6D9
:1008A00007FCFACFE889F989808185FFF5CFCE0171
:1008B0000E94FB03F1CFEB8DEC0FFD2FF11DE35AEE
:1008C000FF4FF0829FB7F8940B8FEA89FB898081F4
:1008D0008062CFCFCF93DF93EC01888D8823B9F06E
:1008E000AA89BB89E889F9898C9185FD03C080813B
:1008F00086FD0DC00FB607FCF7CF8C9185FFF2CFB8
:10090000808185FFEDCFCE010E94FB03E9CFDF910F
:10091000CF910895CF93C42FFC018081806291E034
:1009200090931705809339051092180510923A0597
:100930008BE395E00E9427016C2F8BE395E00E94EA
:10094000270181E0CF910C947D02CF93DF93EC01DE
:1009500068831092CA041092C9041092180510926C
:100960003A050E94D6018EEC90E09093A304809308
:10097000A2048FEC90E09093A7048093A604888152
:10098000806291E0909317058093390560E08BE3D6
:1009900095E00E9427016FEF8BE395E00E9427010D
:1009A00060E08BE395E00E94270160E08BE395E037
:1009B0000E94270160E08BE395E00E94270160E040
:1009C0008BE395E00E94270160E08BE395E00E94B5
:1009D000270160E08BE395E00E94270160E08BE354
:1009E00095E00E94270160E08BE395E00E942701DB
:1009F00060E08BE395E00E94270181E0DF91CF91D9
:100A00000C947D0280E091E00C943A07FC01128284
:100A1000138208950F931F93CF93DF93FC012281DC
:100A200033812617370799F08B01EC017B836A83AA
:100A3000462F69E004960E948A04412F69E0CE01A6
:100A40000596DF91CF911F910F910C948A04DF914D
:100A5000CF911F910F9108950F931F93CF93DF9321
:100A6000FC01603170F58281938101E010E020E0AB
:100A700030E004C0000F111F221F331F6A95D2F708
:100A80004423D1F0082B192B13830283C281D38115
:100A90008C179D07B1F08F014C2F69E0CF010496B0
:100AA0000E948A044D2F69E0C8010596DF91CF911D
:100AB0001F910F910C948A04009510950823192317
:100AC000E3CFDF91CF911F910F910895089508957D
:100AD00008950F931F93CF93DF93FC0180858823A4
:100AE00009F461C0813009F0B5C015858185482FB2
:100AF00050E01F3FF1F1A281AF3F09F4ADC066E0C5
:100B0000A69FE0011124CC55DE4FC10FD11D988165
:100B1000113081F5B0E0A754BE4F2C91A92FA21B34
:100B2000BB0B4A175B070CF495C0D82FD91BD68B8B
:100B30009485C281913011F0C230F1F4AC2FB0E055
:100B4000AA54BE4F6C910E946915958B113039F4EF
:100B5000AC2FB0E0A754BE4F8C918D0F868B828155
:100B6000823009F473C081E0DF91CF911F910F9122
:100B7000089590E020E0D2CF923091F42C2F30E015
:100B8000D901A754BE4F8C91BA01681B7109CB01E2
:100B90002A543E4FD9016C9170E00E947515858BE7
:100BA000113009F7D5CF05854281242F30E00F3F62
:100BB000F1F14F3FE1F186E0829FD001839FB00DBC
:100BC0001124AC55BE4FA00FB11D13969C91818589
:100BD000A82FB0E0B90167577E4FEB016881691B10
:100BE000770B6A177B07B4F1182F191B168B9485A6
:100BF000913011F04230E9F4C90187549E4FEC0165
:100C000088818A0F9B2F911DD901AA54BE4F6C91E8
:100C100070E00E947515858B013009F0A0CF2A5431
:100C20003E4FD9018C91D12FD81BD68B98CF90E015
:100C3000CECF923039F4D901AA54BE4F6C910E94A4
:100C40006915958B013009F08ECFE9CF85898D5FCD
:100C5000858B89CF80E088CF90E0113009F065CF97
:100C600059CFFC016283089521E0FC01208B089597
:100C70006F3FD1F0FC0125852F3FB1F032813F3F1E
:100C800099F0862F90E0BC01660F771F680F791FDF
:100C9000F6E03F9F600D711D11246C557E4F620F71
:100CA000711DFB018081089580E00895FC0182811F
:100CB0000895262FFC01418565858EE096E00C9411
:100CC0006B0CCF93DF93EC0189859989981751F0CC
:100CD000898BCE010E9469056FEFCE01DF91CF9124
:100CE0000C945906DF91CF91089584EE95E00C9411
:100CF0000B07BC0181E391E00C940A05CF93DF93CD
:100D0000EC018B858F3F09F08C8B8A85813089F4CB
:100D10008C8981110CC02985AA81B0E0A658BE4FEC
:100D20008C9190E002962817190609F094F480E05F
:100D300019C08111FCCF8C898130C9F72985AA811E
:100D4000B0E0A457BE4F8C918250990B281719061A
:100D500074F78FEF9FEF0E94790660E0CE010E944A
:100D6000590681E0DF91CF91089581E391E00C94E1
:100D7000730ACF93DF93EC0160E082E00E941502DA
:100D800060E083E00E94150260E084E00E941502AA
:100D900061E085E00E94150261E086E00E94150294
:100DA00061E085E00E94A80161E086E00E94A80160
:100DB0000E94B5068FEF8A831B821C821E821D82D1
:100DC0001F821E861F86188A198A91E09A8B1B8AB9
:100DD0008C8B19868B871E8ADF91CF91089584EEC4
:100DE00095E00C94560684EE95E00C94B906682FB5
:100DF0008BEF95E00C94FB0781E00E94F70684EEF0
:100E000095E00C94C10A8BEF95E00C94FE0785E009
:100E100096E00C941B08CF93DF93EC0185E096E0FD
:100E20000E943A0885E096E00E94210889870E9486
:100E300007078A8785E096E00E9418088B8785E07F
:100E400096E00E941E088C8785E096E00E941508B7
:100E50008D87DF91CF910895AB01BC018EE096E0C4
:100E60000C94241181EB96E00C94560981EB96E0EA
:100E70000C946C090C943607DF92EF92FF920F935B
:100E80001F93CF93DF93EC01D62E142F79010E948C
:100E90000307823029F582E1E114F104C9F0D1168B
:100EA00008F5EA81F0E0E256FE4F80811817D0F491
:100EB000DB821C83FE82ED820F838FEF8F87888712
:100EC0001E86188A83E00E94F7060E94360780E09B
:100ED000DF91CF911F910F91FF90EF90DF900895D8
:100EE0008FEEF6CF81E1F4CF682F81EB96E00C9482
:100EF00088090895CF92DF92EF92FF921F93CF93CC
:100F0000DF93EC018A818230F9F088F48823E1F0E4
:100F10008130F9F08B818A838EE096E0DF91CF916A
:100F20001F91FF90EF90DF90CF900C94341084309D
:100F300031F1E0F0853071F78B81813079F560E037
:100F400086E00E94A80127C060E085E00E94A80119
:100F5000E1CF60E085E00E94A80184EE95E00E9468
:100F60007E068823B9F282E08B83D4CF61E085E0EE
:100F70000E94A80184EE95E00E94F80CCBCF84EE8D
:100F800095E00E94610680E091E00E94440E8B8112
:100F9000813009F0BFCF0E94F306BCCF0E946D03E1
:100FA0006B017C018E819F81A885B985A70196017F
:100FB000281B390B4A0B5B0BDA01C901843F9140B6
:100FC000A105B10508F4A6CF6D8185E00E94A801B6
:100FD0006D8111E0612786E00E94A8018D81812743
:100FE0008D83CE82DF82E886F9866C8184EE95E07F
:100FF0000E9459068FCFFC0163830895FC01828112
:101000000895CF93DF93EC011A821B821D820E9408
:101010006D036E837F83888799871C82DF91CF91D0
:1010200008950895FC0182810895FC01848108954A
:10103000FC0186810895FC0185810895FC0183816E
:101040000895FC0187810895FC01628317828FEF68
:10105000858386831382848310860895662329F00E
:10106000613031F090E080E008958FE00C9446020A
:101070008EE0FCCF0F931F93CF93DF93EC018FEFA4
:101080008E8382E00E947F0111E0009709F410E056
:101090002885211169C0009709F466C083E00E9489
:1010A0007F0121E0892B09F420E02D838D8181309F
:1010B00059F49F81EA81F0E0E757FE4F808198174D
:1010C00018F48F818F5F8F838C81823009F444C044
:1010D0008C81811103C08A818230F1F18FE00E94FE
:1010E0004602BC019A81292F30E0A901440F551F07
:1010F000FA01ED57FE4F0190F081E02D6E177F074A
:1011000040F043585E4FDA014D915C914617570706
:1011100018F51E8226583E4FD9010C916E177F0795
:1011200008F06DC081E0923011F41C8204C09C81F3
:101130009F3F51F48C8384E00E947F01892B91F4BE
:1011400082E08B830F8308C09C81981799F39F815D
:10115000091780F782E08C831887DF91CF911F9168
:101160000F91089581E0EDCF28852223A9F3892BE3
:1011700099F783E00E947F0121E0892B09F020E0AC
:101180002D838D8181110BC09F81EA81F0E0E556AE
:10119000FE4F8081891718F48F8181508F838EE0F4
:1011A0000E9446022A8130E0220F331FF901EB56DC
:1011B000FE4F408151818417950740F021573E4FE3
:1011C000F901208131812817390730F621E02E837B
:1011D0008417950720F48C81823009F01C8284E00A
:1011E0000E947F01892B49F481E08B83EA81F0E042
:1011F000E457FE4F80818F83AFCF82E0F6CF80E04F
:10120000923009F094CF1C82045F95CF0895E7E4F3
:10121000F5E0A089B18922E02C93A485B5851C92C4
:10122000A685B78520E12C93108EA489B58926E088
:101230002C93A289B3892C9120612C93A289B38924
:101240002C9128602C93A289B3892C9120682C932F
:10125000A289B3892C912F7D2C93DC01AC5BBF4F0D
:10126000ED93FC93FC01EA5BFF4F2CE237E0318306
:101270002083885B9F4FFC0111821082089508959E
:10128000CF93DF93FC012185222369F0EC018AE0F2
:10129000808781E0828382E083830E946D036C8378
:1012A0007D838E839F83DF91CF910895CF93DF93CA
:1012B000FC012185222369F0EC0183E0808781E035
:1012C000828382E083830E946D036C837D838E839F
:1012D0009F83DF91CF910895CF93DF93FC01218508
:1012E000222369F0EC0185E0808781E0828382E03F
:1012F00083830E946D036C837D838E839F83DF9144
:10130000CF910895FC0182810895FC0181850895A3
:10131000FC01128261870895CF92DF92EF92FF92D3
:101320000F931F93CF93DF93EC018881806291E04C
:1013300090931705809339051092180510923A057D
:1013400060E08BE395E00E94270181E00E947D022E
:10135000C8810E9458026B017C01809111058111A6
:1013600065C081E080931105809310059FEF9093F5
:101370000F0510920E0510920D058093EC048091DC
:10138000EC04C062CC0FC82BC093EC048091EB043A
:10139000813009F082C01092EB040E9458026B0168
:1013A0007C018091EC048093BB00809113059091A7
:1013B0001405A0911505B0911605892B8A2B8B2B4E
:1013C000A1F00E945802009113051091140520917C
:1013D0001505309116056C197D098E099F090617B0
:1013E00017072807390708F442C08091BC0083FD25
:1013F000D8CF85EC8093BC000E9458026B017C0121
:1014000080911105813009F44AC080910E05811147
:1014100068C080910E05EDEEF4E0ABECB4E090E036
:10142000981751F121912D939F5FFACF8091130569
:1014300090911405A0911505B0911605892B8A2B62
:101440008B2B09F48ACF0E9458020091130510914A
:10145000140520911505309116056C197D098E092A
:101460009F09061717072807390708F076CF8091DC
:1014700012050E94F40180E01092CA048093C9040E
:101480008BE395E00E94E000DF91CF911F910F91D7
:10149000FF90EF90DF90CF90089585EEABCF8091D5
:1014A000130590911405A0911505B0911605892B8F
:1014B0008A2B8B2B09F4A4CF0E94580200911305AC
:1014C0001091140520911505309116056C197D09B0
:1014D0008E099F09061717072807390708F090CFCC
:1014E000C6CF81E098CF9F92AF92BF92CF92DF920A
:1014F000EF92FF920F931F93CF93DF938C016C01B8
:1015000084E0C80ED11C60E0C6010E94A5047801E9
:1015100095E0E90EF11C61E0C7010E94A504D0E04E
:10152000C0E0AA24A394B12CC6010E948C09A50195
:101530000C2E01C0440F0A94EAF7942E9094482F81
:10154000492160E0C6010E948A04C7010E948C09FB
:10155000482F492160E0C7010E948A042196C830C3
:10156000D10511F7F80113821282DF91CF911F91FB
:101570000F91FF90EF90DF90CF90BF90AF909F9032
:101580000895E898E7E3F1E089E793E091838083A9
:1015900085E796E091838083E9E6F0E080818C7FA7
:1015A00081608083E89A08950F931F93CF938C01F5
:1015B000C62F0E940307811115C080E2CF3F71F052
:1015C000F801C2836C2F85E096E00E94240881E038
:1015D0000E94F706C8010E94C10A80E0CF911F91C6
:1015E0000F9108958FEEFACFCF92DF92EF92FF9294
:1015F000CF93DF93EC010E946D036B017C018A8124
:101600008230D1F08330A1F1813059F58C819D81F8
:10161000AE81BF81C816D906EA06FB0610F188859F
:10162000811186C061E089E00E94150261E089E0D5
:101630000E94A8011A8215C061E089E00E9415028B
:1016400060E089E00E94A80181E08A8383E08B83C7
:1016500082E3C80ED11CE11CF11CCC82DD82EE823B
:10166000FF82DF91CF91FF90EF90DF90CF900895B0
:1016700061E089E00E941502E7EBF0E0E491E330DD
:10168000C9F148F4E130D1F0E23071F160E089E075
:101690000E94A80118C0E730C9F1E83009F43FC042
:1016A000E430A1F78091800080628093800084E123
:1016B00090E090938B0080938A0005C084B5806889
:1016C00084BD84E187BD81E08A8382E08B8382E3ED
:1016D000C80ED11CE11CF11CCC82DD82EE82FF829F
:1016E000888581508887BDCF84B5806284BD84E1C0
:1016F00088BDE9CF8091800080688093800084E17C
:1017000090E09093890080938800DDCF8091B000B5
:1017100080688093B00084E18093B300D4CF80913F
:10172000B00080628093B00084E18093B400CBCF9E
:101730008B818A8396CF85ED8093BC0080911305C1
:1017400090911405A0911505B09116050796A11D5D
:10175000B11D23E0B695A795979587952A95D1F762
:101760002091BC0024FD03C0109211050895409102
:101770001305509114056091150570911605452BC0
:10178000462B472B69F30097A105B10541F02AE2EA
:101790002A95F1F700C00197A109B109E1CF809125
:1017A00012050C94F4010C943F160C943F160C9403
:1017B0003F160C943F160C943F160C943F160C9455
:1017C0003F168F929F92AF92BF92CF92DF92EF928D
:1017D000FF920F931F93CF93DF93CDB7DEB7EDB694
:1017E000FEB68C010E5B1F4FD8018D919C91892B09
:1017F00009F45AC06115710509F456C04115510527
:1018000009F452C0CA010196880F991FEDB7FEB7BF
:10181000E81BF90B0FB6F894FEBF0FBEEDBF2DB756
:101820003EB72F5F3F4F690180EC8183FB014B0185
:10183000840E951E41E050E03DED6BEDB62E7CED43
:10184000A72E8E169F06D1F02191B601640F751F49
:10185000CA010196DB01203C49F4BC928C0D9D1D10
:10186000DC01AC92CA010296AC01EBCF2C932B3D6C
:10187000D9F78C0D9D1DDC013C93F4CFF8018081DC
:101880009181DC01ED91FC910280F381E02DB601A4
:101890000995F80180819181DC01ED91FC91019025
:1018A000F081E02D60EC09950FB6F894FEBE0FBEF6
:1018B000EDBE0FB6F894FEBE0FBEEDBEDF91CF9128
:1018C0001F910F91FF90EF90DF90CF90BF90AF905E
:1018D0009F908F9008959F92AF92BF92CF92DF9288
:1018E000EF92FF920F931F93CF93DF93CDB7DEB7A5
:1018F0002A970FB6F894DEBF0FBECDBF8C01E62E3F
:10190000F42E922E60E085E096E00E942E08B82E1C
:10191000A92E61E085E096E00E942E08D82EC92EFF
:10192000FE01339688E0DF011D928A95E9F784E88D
:1019300089839A820E9403078B83AC82BD82CE8208
:10194000DF82E886F9860E9407078A874AE050E02E
:10195000BE016F5F7F4FC80102960E94E10B2A967D
:101960000FB6F894DEBF0FBECDBFDF91CF911F91B0
:101970000F91FF90EF90DF90CF90BF90AF909F902E
:101980000895CF93DF9300D01F92CDB7DEB722E842
:1019900029836A834B8343E050E0BE016F5F7F4F32
:1019A00002960E94E10B0F900F900F90DF91CF9164
:1019B000089540E0682F8EE096E00C94C10C1F93D0
:1019C000CF93DF93FC011685112339F0EC01878555
:1019D000681308C016860E943207812FDF91CF91CD
:1019E0001F9108950E94D90C81E08E8710E0F5CFF9
:1019F000CF93DF93EC018A89882379F01A8A0E94B9
:101A000032078F858F5F8F8791E02C89211190E0BD
:101A100098870E94D90C81E08E87898599899817CB
:101A200009F46DC0898B8F81882321F060E0CE019D
:101A30000E945906CE010E946905882309F45FC0FF
:101A40008E89282F30E093E0359527959A95E1F718
:101A5000ED81FE81E20FF31F408150E0877002C0EC
:101A6000559547958A95E2F741706D8981E391E03C
:101A70000E942C058E894B81841728F09C81981731
:101A800010F081E08B8B298530E0ED855A81852F20
:101A900090E0EF3FB9F15F3FA9F166E0689FD001A8
:101AA000699FB00D1124AC55BE4FAE0FB11D6C91A6
:101AB000D901A61BB109BD01EF3F31F15F3F21F113
:101AC00056E0589FD001599FB00D1124AC55BE4F20
:101AD000EA0FFB2FF11D5381F901E51BF109588530
:101AE000511114C08F559E4FDC018C91242F281B5F
:101AF000330B621773071CF4E217F307C4F0DF918E
:101B0000CF91089560E0D4CF50E0E6CF5130B9F7DF
:101B10003C818F559E4FDC018C91A32FA80FBB27D2
:101B2000BB1FA617B7075CF7AE17BF0744F78B8933
:101B3000882329F31B8A88899E8591110EC0811103
:101B40000EC08F858F5F8F8791E0511190E098874D
:101B50000E94D90C81E08E87D2CF882381F281EB5D
:101B600096E00E94400981E00E94F7068FEF9FEF08
:101B70000E947906DF91CF910C943207CF93DF93C7
:101B8000EC01CD59DF4F6883DA0121E03D91422F0E
:101B900050E0332341F0480F591FFA01ED59FF4F30
:101BA00030832F5FF3CFBE010296DF91CF910C946B
:101BB000E10BAC016EEE8EE096E00C94BE0D83E678
:101BC00092E00E94D90D82E00E947F01892BF1F4FE
:101BD0008FE592E00E94D90D8DE692E00E94D90D2A
:101BE00083E00E947F01892BA1F48FE592E00E949F
:101BF000D90D87E792E00E94D90D84E00E947F0111
:101C0000892B51F48FE592E00C94D90D8AE592E08E
:101C1000E1CF8AE592E0EBCF8AE592E0F5CF1F9322
:101C2000CF93DF93EC018FE00E94460229969F93A9
:101C30008F9381E892E09F938F931F9218E21F93F6
:101C4000DF93CF930E94DE16CE010E94D90D8EE065
:101C50000E9446029F938F938EE892E09F938F930A
:101C60001F921F93DF93CF930E94DE168DB79EB70E
:101C700040960FB6F8949EBF0FBE8DBFCE01DF9188
:101C8000CF911F910C94D90DCF92DF92EF92FF92DA
:101C90000F931F93CF93DF93EC010E946D030C8190
:101CA0001D812E813F816B017C01C01AD10AE20A9D
:101CB000F30A97018601043F11402105310588F19F
:101CC0006C837D838E839F838A81882381F08885BE
:101CD000882369F089E694E00E94D90DCE010E9424
:101CE0000F0E0E94DF0D89E694E00E94D90D8B81D2
:101CF000882399F088858823E9F08BE992E00E9497
:101D0000D90D60E085E00E94A80160E086E00E94B5
:101D1000A80185E595E50E947906888591E08927E7
:101D20008887DF91CF911F910F91FF90EF90DF9007
:101D3000CF9008958EEA92E00E94D90D61E085E08F
:101D40000E94A80161E086E00E94A8018AEA9AEA5E
:101D5000E2CFCF93DF93EC0182EC92E00E94D90DA9
:101D600081E08B83DF91CF910895CF93DF93EC01D6
:101D700086EE92E00E94D90D81E08A83DF91CF91B7
:101D800008958AE093E00E94D90D0E94DF0D89E654
:101D900094E00C94D90DCF93DF93EC018FE193E0A5
:101DA0000E94D90DCE010E940F0E89E694E0DF91CA
:101DB000CF910C94D90D0F931F93CF93DF93EB0129
:101DC0008A0186E393E00E94D90D0330110540F4A7
:101DD00085E493E0DF91CF911F910F910C94D90D81
:101DE000898190E0982F88272A81820F911DDF91A9
:101DF000CF911F910F910C947906EF92FF920F9360
:101E00001F93CF93DF93EC018B017A018FE593E071
:101E10000E94D90D83E0E816F10450F485E493E0C4
:101E2000DF91CF911F910F91FF90EF900C94D90DFE
:101E3000F80161816031C0F029961F926F9381E7AC
:101E400093E09F938F931F9288E28F93DF93CF93BA
:101E50000E94DE16EDB7FEB738960FB6F894FEBFB7
:101E60000FBEEDBFCE01DCCF42814230B8F02996E3
:101E70001F924F9383E993E09F938F931F9288E281
:101E80008F93DF93CF930E94DE16EDB7FEB738969F
:101E90000FB6F894FEBF0FBEEDBFE4CF417081E3F3
:101EA00091E0DF91CF911F910F91FF90EF900C94F3
:101EB0002C0585EB93E00E94D90D0C94360782EC3B
:101EC00093E00E94D90D89EE93E00E94D90D82E043
:101ED00094E00E94D90D86E293E00E94D90D81E141
:101EE00093E00E94D90D8CEB93E00E94D90D84E120
:101EF00094E00E94D90D8EE194E00E94D90D82E712
:101F000094E00E94D90D88E294E00E94D90D84E00B
:101F100093E00E94D90D8EE294E00C94D90DFF92CB
:101F20000F931F93CF93DF938C01C62F0E9403075B
:101F3000833008F06EC084E00E94F7066C2F84EEB8
:101F400095E00E94310684E394E00E94D90DE801F7
:101F500029961F921F9289E494E09F938F931F927A
:101F600088E2F82EFF92DF93CF930E94DE16CE0117
:101F70000E94D90D1F921F9288E594E09F938F9342
:101F80001F92FF92DF93CF930E94DE16CE010E9434
:101F9000D90D1F9286E08F938EE594E09F938F93E7
:101FA0001F92FF92DF93CF930E94DE16CE010E9414
:101FB000D90DC8010E945F0FE89889E793E09093DC
:101FC00038018093370182E095E090933801809347
:101FD000370180916900836080936900E89AF80175
:101FE000128213820E946D03F801648375838683D5
:101FF000978310868DB79EB748960FB6F8949EBF0C
:102000000FBE8DBF80E0DF91CF911F910F91FF90A8
:1020100008958FEEF8CF02960C94E10BCF93DF93E7
:1020200000D01F92CDB7DEB78BE694E00E94D90DA9
:102030008091410190914201A091430189839A834B
:10204000AB8343E050E0BE016F5F7F4F8EE096E0D0
:102050000E940B1089E694E00E94D90D0F900F901A
:102060000F90DF91CF9108952F923F924F925F9200
:102070006F927F928F929F92AF92BF92CF92DF9298
:10208000EF92FF920F931F93CF93DF9300D000D076
:10209000CDB7DEB78C012DB63EB65C0124E4A20EAE
:1020A000B11CD5018D919C91892B09F4B1C06801B7
:1020B000B2E0CB0ED11CF801EE5BFF4F7F0198011F
:1020C0002A5B3F4F3A832983280138E4430E511C91
:1020D00080EC882ED5018D919C91DC01ED91FC91D5
:1020E0000084F185E02D0995181619060CF090C0B2
:1020F000F50180819181DC01ED91FC910284F385F1
:10210000E02D0995803C09F071C0A981BA81ED915B
:10211000FC91309729F4D2018D919C91892B21F16A
:102120006DB67EB6D7010D90BC91A02DBC83AB835C
:102130002DB73EB72A1B3B0B0FB6F8943EBF0FBE20
:102140002DBF8DB79EB7019650E040E070E060E093
:10215000AB2B81F4309709F43FC0BA0109950FB653
:10216000F8947EBE0FBE6DBEF70111821082B2CF11
:102170009B01B901AB81BC816A177B0758F79601B7
:10218000260F371FD9019C909B012F5F3F4FB0EC6A
:102190009B1679F3ABED9A1219C02C0D3D1DD90198
:1021A0002C912C3D59F49C01240F351FD9018C92A0
:1021B0009B012E5F3F4F4F5F5F4FDBCF2D3DC1F641
:1021C0009C01240F351FD9019C92F2CFBC01640FF2
:1021D000751FDB019C92EFCFD201ED91FC913097FE
:1021E00009F4BDCFBC01C6010995B9CFD7012D9126
:1021F0003C911197A9014F5F5F4F4034510508F0A2
:1022000069CF4D935C93200F311FF901828362CF18
:102210000FB6F8943EBE0FBE2DBE0F900F900F90DC
:102220000F90DF91CF911F910F91FF90EF90DF9072
:10223000CF90BF90AF909F908F907F906F905F9066
:102240004F903F902F9008959F92AF92BF92CF9260
:10225000DF92EF92FF920F931F93CF93DF93CDB74F
:10226000DEB766970FB6F894DEBF0FBECDBF41153F
:102270005105A9F06A017B018C01FB019081983224
:1022800009F415C150F5953009F460C0D0F49330CD
:1022900009F4DFC008F0F4C0913009F48AC06696F2
:1022A0000FB6F894DEBF0FBECDBFDF91CF911F9167
:1022B0000F91FF90EF90DF90CF90BF90AF909F90E5
:1022C0000895963209F4E9C008F0ECC0953239F768
:1022D00080E091E00E945F0FE2CF9C3209F4F6C0EB
:1022E00050F49A3209F4EDC008F4E6C080E091E0C1
:1022F0000E94C10ED4CF9E3209F4F2C008F4EBC0A4
:102300009F3209F4F2C0923451F60E94EF06E82F92
:10231000F0E0E958FE4F8081A82EB12C95012B5F8B
:102320003F4FC216D30608F4BACFF701C180D3805D
:10233000D7011496F801E65BFF4F90E0891709F486
:102340006DC02D91209521939F5FF8CF5801F2E049
:10235000AF0EB11C4330510568F485EC898381E0F0
:102360008A8342E050E0BE016F5F7F4FC5010E944B
:10237000E10B95CF62E070E0C7010E948C00F7018D
:102380009281981721F085EC898384E0E9CFF18070
:1023900049E150E06FEF70E0C801865B9F4F0E94FB
:1023A000C8166F2D84EE95E00E94D40A95EC9983AF
:1023B000D7CF5801F2E0AF0EB11C4530510520F4E3
:1023C00081EC89839A83CDCFFB01D38064E070E0F8
:1023D000C7010E948C00F7019481981711F081ECDD
:1023E000D3CFC1809280D1FA882780F90E947407E8
:1023F0007801FAE4EF0EF11C49E150E06FEF70E074
:10240000C7010E94C8160D2D01709701492D6C2D32
:1024100084EE95E00E943C0791ECC9CFB5016C5F5A
:102420007F4FC7010E948C00EA0CFB1CF7019481CE
:10243000981335CF6C2D84EE95E00E94DF0C882335
:1024400009F42DCFD0FE2BCF84EE95E00E94340608
:1024500026CF83EC898386E08A831B821C821D82BF
:1024600040E150E066E771E0CE0106960E94CF168B
:1024700046E150E0BE016F5F7F4FC801029677CF03
:102480000E94EF06682F80E091E00E948F0F94EC8D
:1024900099838A8342E050E0EDCF80E091E00E9492
:1024A0000E10FDCE80E091E00E94590FF8CE80E042
:1024B00091E00E94FD0EF3CE80E091E00E94DB0EE1
:1024C000EECE80E091E00E94CB0EE9CE80E091E07C
:1024D0000E94B50EE4CE80E091E00E94A90EDFCE0E
:1024E00080E091E00E940605DACE80E091E00E9453
:1024F000FC06D5CE1F920F920FB60F9211242F9388
:102500003F934F935F936F937F938F939F93AF937B
:10251000BF93EF93FF938091B900887F803609F4D1
:102520004AC0F0F5883209F4A7C018F5803109F4E3
:102530009BC0B8F4882309F4F9C0883009F494C02A
:10254000FF91EF91BF91AF919F918F917F916F918B
:102550005F914F913F912F910F900FBE0F901F9061
:102560001895883109F488C0803251F780930F059F
:1025700014C0803409F49DC040F48033B9F388332B
:10258000F9F680930F0585ECB0C0803509F485C05D
:10259000883509F496C0883499F60E949B0BD0CFF9
:1025A000883909F48CC038F5883729F050F488361A
:1025B00011F0803729F683E0809311051092C8044A
:1025C00057C0883809F47BC0803919F0803809F089
:1025D000B7CF8091C804803208F071C0E091C80480
:1025E00081E08E0F8093C8048091BB00F0E0E85535
:1025F000FB4F80833DC0803B39F0E0F4803A09F422
:1026000079C0883A09F09CCF84E08093110510923C
:10261000A5041092A404E091A204F091A3040995EA
:102620008091A40481110FC081E08093A4041092D2
:10263000820409C0803C09F4A6CF883C09F4A3CFEA
:10264000883B09F07DCFE091A50481E08E0F809357
:10265000A504F0E0EE57FB4F80818093BB00909182
:10266000A5048091A40429C08091EC048093BB0050
:1026700085EC8093BC0064CF90910E0580910D0590
:10268000981758F5E0910E0581E08E0F80930E05A6
:10269000F0E0E351FB4F8081E9CFE0910E0581E04E
:1026A0008E0F80930E058091BB00F0E0E351FB4F4D
:1026B000808390910E0580910D059817C8F285E8EA
:1026C000D8CFE0910E0581E08E0F80930E058091AA
:1026D000BB00F0E0E351FB4F808380911005811136
:1026E0005CCF81E08093EB0484EA8093BC0010927D
:1026F000110526CF85EC8093BC00109211058091C6
:10270000C804803230F4E091C804F0E0E855FB4F93
:1027100010826091C80470E0E091A604F091A704D3
:1027200088EA94E009951092C8040ACF10920F0528
:1027300034CF1F920F920FB60F9211242F933F9315
:102740008F939F93AF93BF938091790490917A0474
:10275000A0917B04B0917C043091780423E0230F96
:102760002D3758F50196A11DB11D20937804809353
:10277000790490937A04A0937B04B0937C048091B5
:102780007D0490917E04A0917F04B0918004019615
:10279000A11DB11D80937D0490937E04A0937F04BE
:1027A000B0938004BF91AF919F918F913F912F91F2
:1027B0000F900FBE0F901F90189526E8230F0296DA
:1027C000A11DB11DD2CF1F920F920FB60F921124EF
:1027D0002F933F934F935F936F937F938F939F9329
:1027E000AF93BF93EF93FF93E0913901F0913A01DA
:1027F0000995FF91EF91BF91AF919F918F917F913B
:102800006F915F914F913F912F910F900FBE0F905D
:102810001F9018951F920F920FB60F9211242F93AD
:102820003F934F935F936F937F938F939F93AF9358
:10283000BF93EF93FF93E0913701F0913801099531
:10284000FF91EF91BF91AF919F918F917F916F9188
:102850005F914F913F912F910F900FBE0F901F905E
:1028600018951F920F920FB60F9211242F933F933A
:102870004F935F936F937F938F939F93AF93BF9388
:10288000EF93FF9387E495E00E94FB03FF91EF91A4
:10289000BF91AF919F918F917F916F915F914F9178
:1028A0003F912F910F900FBE0F901F9018951F9280
:1028B0000F920FB60F9211242F938F939F93EF9344
:1028C000FF93E0915705F09158058081E0915D05F7
:1028D000F0915E0582FD1BC09081809160058F5F45
:1028E0008F7320916105821741F0E0916005F0E05F
:1028F000E95BFA4F958F80936005FF91EF919F916F
:102900008F912F910F900FBE0F901F90189580817F
:10291000F4CFEBE3F5E01382128288EE93E0A0E0BF
:10292000B0E084839583A683B78320EC31E03183C4
:102930002083E7E4F5E01382128284839583A683E3
:10294000B78382ED91E09183808385EC90E0958759
:10295000848784EC90E09787868780EC90E0918B69
:10296000808B81EC90E0938B828B82EC90E0958B56
:10297000848B86EC90E0978B868B118E128E138E53
:10298000148E88E492E09093B2068093B10684EEB0
:1029900091E090930F0680930E06109251061092CC
:1029A000500610925306109252061092550610923D
:1029B00054061092570610925606E8E5F6E089E1B3
:1029C000DF011D928A95E9F7E1E7F6E080E4DF0197
:1029D0001D928A95E9F78EE292E090930606809325
:1029E00005068EE192E09093FC058093FB058AEF4B
:1029F00091E09093E5058093E4050895789484B57B
:102A0000826084BD84B5816084BD85B5826085BDEA
:102A100085B5816085BD80916E00816080936E0078
:102A2000109281008091810082608093810080916A
:102A3000810081608093810080918000816080931B
:102A400080008091B10084608093B1008091B000DB
:102A500081608093B00080917A00846080937A00D6
:102A600080917A00826080937A0080917A00816000
:102A700080937A0080917A00806880937A00109227
:102A8000C10080E00E9474078EE096E00E94070972
:102A90008BEF95E00E9401080E94F3060E94B506A4
:102AA000C0E0D0E08BEF95E00E947A0781EB96E0E2
:102AB0000E948509882321F081EB96E00E94F40AA8
:102AC000209781F30E94E703882361F30E940000AE
:102AD000E9CF991B79E004C0991F961708F0961B5F
:102AE000881F7A95C9F78095089597FB072E16F4ED
:102AF000009407D077FD09D00E94891507FC05D006
:102B00003EF4909581959F4F0895709561957F4F04
:102B10000895AA1BBB1B51E107C0AA1FBB1FA61724
:102B2000B70710F0A61BB70B881F991F5A95A9F776
:102B300080959095BC01CD010895EE0FFF1F059083
:102B4000F491E02D09940F931F93CF93DF9382307C
:102B5000910510F482E090E0E091BD06F091BE0690
:102B600030E020E0B0E0A0E0309799F42115310585
:102B700009F44AC0281B390B24303105D8F58A8165
:102B80009B816115710589F1FB0193838283FE01AD
:102B900011C0408151810281138148175907E0F02B
:102BA0004817590799F4109761F012960C931297F1
:102BB00013961C933296CF01DF91CF911F910F9105
:102BC00008950093BD061093BE06F4CF211531057C
:102BD00051F04217530738F0A901DB019A01BD01FA
:102BE000DF01F801C1CFEF01F9CF9093BE068093CA
:102BF000BD06CDCFFE01E20FF31F819391932250CA
:102C0000310939832883D7CF2091BB063091BC0688
:102C1000232B41F420913D0130913E013093BC06BD
:102C20002093BB0620913B0130913C0121153105D9
:102C300041F42DB73EB740913F0150914001241B14
:102C4000350BE091BB06F091BC06E217F307A0F448
:102C50002E1B3F0B2817390778F0AC014E5F5F4FF2
:102C60002417350748F04E0F5F1F5093BC06409362
:102C7000BB06819391939FCFF0E0E0E09CCFCF9390
:102C8000DF930097E9F0FC01329713821282A09142
:102C9000BD06B091BE06ED0130E020E01097A1F432
:102CA00020813181820F931F2091BB063091BC0699
:102CB0002817390709F061C0F093BC06E093BB0602
:102CC000DF91CF910895EA01CE17DF07E8F54A8139
:102CD0005B819E0141155105B1F7E901FB83EA8350
:102CE00049915991C40FD51FEC17FD0761F48081FC
:102CF00091810296840F951FE901998388838281CF
:102D000093819B838A83F0E0E0E012968D919C9101
:102D100013970097B9F52D913C911197CD0102962B
:102D2000820F931F2091BB063091BC0628173907EC
:102D300039F6309751F51092BE061092BD06B09349
:102D4000BC06A093BB06BCCFD383C2834081518114
:102D5000840F951FC817D90761F44E5F5F4F8881B4
:102D60009981480F591F518340838A819B819383A6
:102D700082832115310509F0B0CFF093BE06E093B0
:102D8000BD069ECFFD01DC01C0CF13821282D7CFDA
:102D9000DC0101C06D9341505040E0F70895FB0104
:102DA000DC014150504048F001900D920020C9F7DD
:102DB00001C01D9241505040E0F70895AEE0B0E0F0
:102DC000E4EEF6E10C949A190D891E898F89988D8D
:102DD00026E02C831A83098397FF02C080E090E8E5
:102DE00001979E838D83AE01455E5F4F698D7A8D1D
:102DF000CE0101960E940E174D815E8157FD0AC0DB
:102E00002F813885421753070CF49A01020F131FC4
:102E1000F80110822E96E4E00C94B619ABE0B0E015
:102E2000E4E1F7E10C948C197C013B018A01FC017F
:102E300017821682838181FFC8C1CE0101965C0191
:102E4000F7019381F30193FD859193FF81913F01F8
:102E5000882309F453C1853239F493FD859193FF9A
:102E600081913F01853229F4B70190E00E94FE185C
:102E7000E7CF912C212C312CFFE1F31538F08B3268
:102E800011F190F4803209F1833229F137FC3CC012
:102E900020ED280F2A3050F536FE20C08AE0989E9B
:102EA000200D1124922E06C08D3291F0803371F7DF
:102EB000689430F8F30193FD859193FF81913F0170
:102EC0008111DACF21C0689431F8689432F8F2CFDA
:102ED000689433F8EFCF689434F8ECCFEAE02E9E94
:102EE000200D1124222E689435F8E4CF8E3229F477
:102EF00036FC04C1689436F8DDCF8C3619F468943A
:102F000037F8D8CF8836B1F2982F9F7D95549330FB
:102F1000E0F08336A1F18337C1F1833509F063C056
:102F20002801F2E04F0E511CF801C080D180692DBC
:102F300070E036FC02C06FEF7FEFC6010E94E81818
:102F40004C01689437F882010AC00C5F1F4FFFE301
:102F5000F98388248394912C6501E89437F833FE33
:102F60002DC0522C8114910471F5552009F468CFBD
:102F7000B70180E290E00E94FE185A94F6CFF80163
:102F8000808189830E5F1F4FE4CF2801F2E04F0E4E
:102F9000511CF801C080D180692D70E036FC02C060
:102FA0006FEF7FEFC6010E94F3184C018201D5CF6D
:102FB000B70180E290E00E94FE182A9428141904B8
:102FC00009F0B0F7CECFF60137FC859137FE81913D
:102FD0006F01B70190E00E94FE1851105A94F1E081
:102FE0008F1A9108BFCF843619F0893609F077C05F
:102FF000F80137FE6BC060817181828193810C5F23
:103000001F4FF32DFF763F2E97FF09C090958095B7
:10301000709561957F4F8F4F9F4F689437F82AE0E6
:1030200030E0A5010E942E19C82ECA188C2C432C02
:1030300036FE0CC0E89440F8C91440F434FE05C0D4
:1030400032FC03C0F32DFE7E4F2E892C44FE95C02A
:10305000FE01EC0DF11D8081803309F087C0242D25
:10306000297E422E842D8870582E43FC95C040FE48
:103070008FC09C2C821418F42C0C922C981844FEAF
:1030800091C0B70180E390E00E94FE1842FE09C0A3
:1030900088E790E041FE02C088E590E0B7010E9419
:1030A000FE18C91408F48AC0CA94D12C9FEFC91A1B
:1030B000D90ACA0CDB1CF60182916F01B70190E0BE
:1030C0000E94FE18AC14BD04B1F74FCF608171812E
:1030D000072E000C880B990B0E5F1F4F92CFD32C3D
:1030E000E894D4F82AE030E0853739F1232D297FA0
:1030F000D22E8F3601F148F48835A9F0F701868188
:1031000097812B96E2E10C94A819803749F0883713
:10311000A9F7D4FE02C06894D2F820E130E00DC0D7
:103120006894D4F8F6CF34FE03C0822F8660D82E80
:1031300020E132E002C028E030E0F801D7FE0FC005
:1031400060817181828193810C5F1F4FA5010E9474
:103150002E19C82ECA183D2CE89437F867CF608125
:10316000718190E080E00E5F1F4FF0CF42FC02C003
:10317000839478CF8394839475CF842D867809F4D3
:1031800071CFF6CFB70180E290E00E94FE188394E1
:103190008214C0F3512C73CF522C5818821408F4A7
:1031A0006ECFF8CF842D867809F47BCF8BE241FE79
:1031B00080E247FC8DE2B70190E071CFB70180E378
:1031C00090E00E94FE189A946CCF8FEF9FEF99CFFA
:1031D000FC010590615070400110D8F780959095E2
:1031E0008E0F9F1F0895FC016150704001900110E7
:1031F000D8F7809590958E0F9F1F08950F931F937A
:10320000CF93DF93182F092FEB018B8181FD09C02C
:103210001FEF0FEF812F902FDF91CF911F910F9113
:10322000089582FF14C02E813F818C819D812817D3
:1032300039073CF4E881F981CF01019699838883AD
:1032400010838E819F8101969F838E83E3CFE885D3
:10325000F985812F0995892BA1F3DACFFA01AA27E5
:10326000283051F1203181F1E8946F936E7F6E5FC9
:103270007F4F8F4F9F4FAF4FB1E03ED0B4E03CD077
:10328000670F781F891F9A1FA11D680F791F8A1F5A
:10329000911DA11D6A0F711D811D911DA11D20D0C1
:1032A00009F468943F912AE0269F11243019305D7B
:1032B0003193DEF6CF010895462F4770405D41936C
:1032C000B3E00FD0C9F7F6CF462F4F70405D4A33B9
:1032D00018F0495D31FD4052419302D0A9F7EACF81
:1032E000B4E0A6959795879577956795BA95C9F7B0
:1032F00000976105710508959B01AC010A2E0694A3
:103300005795479537952795BA95C9F7620F731F5B
:10331000841F951FA01D08952F923F924F925F9298
:103320006F927F928F929F92AF92BF92CF92DF92D5
:10333000EF92FF920F931F93CF93DF93CDB7DEB73A
:10334000CA1BDB0B0FB6F894DEBF0FBECDBF0994CE
:103350002A88398848885F846E847D848C849B8425
:10336000AA84B984C884DF80EE80FD800C811B8133
:10337000AA81B981CE0FD11D0FB6F894DEBF0FBE62
:0A338000CDBFED010895F894FFCFD2
:10338A0048010000000000000000000000000000EA
:10339A000000000000000000000000000000000023
:1033AA000000000000000000000000000000000013
:1033BA00006C0100000000790379030000BF068059
:1033CA0000313233000000006605D50B8F0F440E22
:1033DA005F0F0E10590FFD0EDB0ECB0EC10EB50E90
:1033EA00A90E0605FC063A07000000006705D70B80
:1033FA00730A2C050A050019190E1C1C05580258D7
:10340A00025802C800C800C800FFFF8CE3E387FF28
:10341A000358025802C80000000000000000C8C893
:10342A00700C0C0628282010103828282010103874
:10343A001C000010000010100C0808060000000014
:10344A002701FA00A703D000F300E000D100000032
:10345A0000001D047A03AA036A04DB03B903CD033F
:10346A00000000000609DD0B070934100B10BE0D21
:10347A00C10C6B0C2411000000006805D90BB906B9
:10348A00C10A0B073C07D40A61067E06F80C5906E6
:10349A0038065606DF0C34063106000000007907AC
:1034AA00D30B0108FE07FB077A070000000011088A
:1034BA00DB0B3A082E08240812081E0815081B08F8
:1034CA0018082108000000003F09DF0B8809850958
:1034DA0082096C0956094009F40A48494748004CD0
:1034EA004F57002020454E435F413A200020204597
:1034FA004E435F423A20002020454E435F433A2024
:10350A00002020454F4C5F4C3A202568750020204A
:10351A00454F4C5F523A2025687500536574206FF9
:10352A00646420736F6C656E6F6964730A00536517
:10353A0074206576656E20736F6C656E6F6964734F
:10354A000A0043616C6C6564206175746F5465731D
:10355A00742C2073656E642073746F7020746F20EE
:10356A00717569740A0043616C6C656420617574D5
:10357A006F526561642C2073656E642073746F707A
:10358A0020746F20717569740A0043616C6C6564FC
:10359A002072656164456E636F646572730A0043E5
:1035AA00616C6C65642072656164454F4C73656E2D
:1035BA00736F72730A0043616C6C6564207365747F
:1035CA00416C6C0A004572726F723A20696E7661BC
:1035DA006C696420617267756D656E74730A004365
:1035EA00616C6C65642073657453696E676C650AF7
:1035FA00004572726F723A20696E76616C69642056
:10360A00736F6C656E6F696420696E6465782025D6
:10361A00690A004572726F723A20696E76616C6946
:10362A006420736F6C656E6F69642076616C756572
:10363A002025690A0043616C6C65642062656570C7
:10364A000A0054686520666F6C6C6F77696E672034
:10365A00636F6D6D616E647320617265206176615E
:10366A00696C61626C653A0A0073657453696E67C6
:10367A006C65205B302E2E31355D205B312F305D3D
:10368A000A00736574416C6C205B302E2E464646E8
:10369A00465D0A006175746F526561640A0061755E
:1036AA00746F546573740A0073746F700A006865E6
:1036BA006C700A0041594142204861726477617214
:1036CA006520546573742C20004669726D776172A7
:1036DA0065207625686875002E2568687500204182
:1036EA0050492076256868750A0A0043616C6C6542
:0836FA00642073656E640A0090
:00000001FF
